{
  "contractName": "freelancing",
  "abi": [
    {
      "inputs": [],
      "stateMutability": "nonpayable",
      "type": "constructor"
    },
    {
      "inputs": [
        {
          "internalType": "address",
          "name": "spender",
          "type": "address"
        },
        {
          "internalType": "uint256",
          "name": "allowance",
          "type": "uint256"
        },
        {
          "internalType": "uint256",
          "name": "needed",
          "type": "uint256"
        }
      ],
      "name": "ERC20InsufficientAllowance",
      "type": "error"
    },
    {
      "inputs": [
        {
          "internalType": "address",
          "name": "sender",
          "type": "address"
        },
        {
          "internalType": "uint256",
          "name": "balance",
          "type": "uint256"
        },
        {
          "internalType": "uint256",
          "name": "needed",
          "type": "uint256"
        }
      ],
      "name": "ERC20InsufficientBalance",
      "type": "error"
    },
    {
      "inputs": [
        {
          "internalType": "address",
          "name": "approver",
          "type": "address"
        }
      ],
      "name": "ERC20InvalidApprover",
      "type": "error"
    },
    {
      "inputs": [
        {
          "internalType": "address",
          "name": "receiver",
          "type": "address"
        }
      ],
      "name": "ERC20InvalidReceiver",
      "type": "error"
    },
    {
      "inputs": [
        {
          "internalType": "address",
          "name": "sender",
          "type": "address"
        }
      ],
      "name": "ERC20InvalidSender",
      "type": "error"
    },
    {
      "inputs": [
        {
          "internalType": "address",
          "name": "spender",
          "type": "address"
        }
      ],
      "name": "ERC20InvalidSpender",
      "type": "error"
    },
    {
      "anonymous": false,
      "inputs": [
        {
          "indexed": true,
          "internalType": "address",
          "name": "owner",
          "type": "address"
        },
        {
          "indexed": true,
          "internalType": "address",
          "name": "spender",
          "type": "address"
        },
        {
          "indexed": false,
          "internalType": "uint256",
          "name": "value",
          "type": "uint256"
        }
      ],
      "name": "Approval",
      "type": "event"
    },
    {
      "anonymous": false,
      "inputs": [
        {
          "indexed": true,
          "internalType": "address",
          "name": "from",
          "type": "address"
        },
        {
          "indexed": true,
          "internalType": "address",
          "name": "to",
          "type": "address"
        },
        {
          "indexed": false,
          "internalType": "uint256",
          "name": "value",
          "type": "uint256"
        }
      ],
      "name": "Transfer",
      "type": "event"
    },
    {
      "inputs": [
        {
          "internalType": "address",
          "name": "owner",
          "type": "address"
        },
        {
          "internalType": "address",
          "name": "spender",
          "type": "address"
        }
      ],
      "name": "allowance",
      "outputs": [
        {
          "internalType": "uint256",
          "name": "",
          "type": "uint256"
        }
      ],
      "stateMutability": "view",
      "type": "function",
      "constant": true
    },
    {
      "inputs": [
        {
          "internalType": "address",
          "name": "spender",
          "type": "address"
        },
        {
          "internalType": "uint256",
          "name": "value",
          "type": "uint256"
        }
      ],
      "name": "approve",
      "outputs": [
        {
          "internalType": "bool",
          "name": "",
          "type": "bool"
        }
      ],
      "stateMutability": "nonpayable",
      "type": "function"
    },
    {
      "inputs": [
        {
          "internalType": "address",
          "name": "account",
          "type": "address"
        }
      ],
      "name": "balanceOf",
      "outputs": [
        {
          "internalType": "uint256",
          "name": "",
          "type": "uint256"
        }
      ],
      "stateMutability": "view",
      "type": "function",
      "constant": true
    },
    {
      "inputs": [],
      "name": "decimals",
      "outputs": [
        {
          "internalType": "uint8",
          "name": "",
          "type": "uint8"
        }
      ],
      "stateMutability": "view",
      "type": "function",
      "constant": true
    },
    {
      "inputs": [
        {
          "internalType": "uint256",
          "name": "",
          "type": "uint256"
        }
      ],
      "name": "jobList",
      "outputs": [
        {
          "internalType": "uint256",
          "name": "id",
          "type": "uint256"
        },
        {
          "internalType": "string",
          "name": "jobName",
          "type": "string"
        },
        {
          "internalType": "string",
          "name": "jobDescription",
          "type": "string"
        },
        {
          "internalType": "enum freelancing.Selection",
          "name": "progress",
          "type": "uint8"
        },
        {
          "internalType": "bool",
          "name": "isSelected",
          "type": "bool"
        },
        {
          "internalType": "address",
          "name": "lancer",
          "type": "address"
        },
        {
          "internalType": "uint256",
          "name": "amount",
          "type": "uint256"
        }
      ],
      "stateMutability": "view",
      "type": "function",
      "constant": true
    },
    {
      "inputs": [],
      "name": "name",
      "outputs": [
        {
          "internalType": "string",
          "name": "",
          "type": "string"
        }
      ],
      "stateMutability": "view",
      "type": "function",
      "constant": true
    },
    {
      "inputs": [],
      "name": "owner",
      "outputs": [
        {
          "internalType": "address",
          "name": "",
          "type": "address"
        }
      ],
      "stateMutability": "view",
      "type": "function",
      "constant": true
    },
    {
      "inputs": [
        {
          "internalType": "address",
          "name": "",
          "type": "address"
        }
      ],
      "name": "proposalKeys",
      "outputs": [
        {
          "internalType": "uint256",
          "name": "id",
          "type": "uint256"
        },
        {
          "internalType": "address",
          "name": "freelancer_address",
          "type": "address"
        },
        {
          "internalType": "string",
          "name": "name",
          "type": "string"
        },
        {
          "internalType": "bool",
          "name": "status",
          "type": "bool"
        }
      ],
      "stateMutability": "view",
      "type": "function",
      "constant": true
    },
    {
      "inputs": [
        {
          "internalType": "uint256",
          "name": "",
          "type": "uint256"
        }
      ],
      "name": "proposals",
      "outputs": [
        {
          "internalType": "uint256",
          "name": "id",
          "type": "uint256"
        },
        {
          "internalType": "address",
          "name": "freelancer_address",
          "type": "address"
        },
        {
          "internalType": "string",
          "name": "name",
          "type": "string"
        },
        {
          "internalType": "bool",
          "name": "status",
          "type": "bool"
        }
      ],
      "stateMutability": "view",
      "type": "function",
      "constant": true
    },
    {
      "inputs": [],
      "name": "symbol",
      "outputs": [
        {
          "internalType": "string",
          "name": "",
          "type": "string"
        }
      ],
      "stateMutability": "view",
      "type": "function",
      "constant": true
    },
    {
      "inputs": [],
      "name": "totalSupply",
      "outputs": [
        {
          "internalType": "uint256",
          "name": "",
          "type": "uint256"
        }
      ],
      "stateMutability": "view",
      "type": "function",
      "constant": true
    },
    {
      "inputs": [
        {
          "internalType": "address",
          "name": "to",
          "type": "address"
        },
        {
          "internalType": "uint256",
          "name": "value",
          "type": "uint256"
        }
      ],
      "name": "transfer",
      "outputs": [
        {
          "internalType": "bool",
          "name": "",
          "type": "bool"
        }
      ],
      "stateMutability": "nonpayable",
      "type": "function"
    },
    {
      "inputs": [
        {
          "internalType": "address",
          "name": "from",
          "type": "address"
        },
        {
          "internalType": "address",
          "name": "to",
          "type": "address"
        },
        {
          "internalType": "uint256",
          "name": "value",
          "type": "uint256"
        }
      ],
      "name": "transferFrom",
      "outputs": [
        {
          "internalType": "bool",
          "name": "",
          "type": "bool"
        }
      ],
      "stateMutability": "nonpayable",
      "type": "function"
    },
    {
      "inputs": [],
      "name": "returnSelection",
      "outputs": [
        {
          "internalType": "enum freelancing.Selection",
          "name": "",
          "type": "uint8"
        }
      ],
      "stateMutability": "pure",
      "type": "function",
      "constant": true
    },
    {
      "inputs": [
        {
          "internalType": "string",
          "name": "jobName",
          "type": "string"
        },
        {
          "internalType": "string",
          "name": "jobDescription",
          "type": "string"
        },
        {
          "internalType": "enum freelancing.Selection",
          "name": "_progress",
          "type": "uint8"
        },
        {
          "internalType": "bool",
          "name": "isSelected",
          "type": "bool"
        },
        {
          "internalType": "uint256",
          "name": "amount",
          "type": "uint256"
        }
      ],
      "name": "postJob",
      "outputs": [],
      "stateMutability": "nonpayable",
      "type": "function"
    },
    {
      "inputs": [
        {
          "internalType": "uint256",
          "name": "id",
          "type": "uint256"
        }
      ],
      "name": "completeJob",
      "outputs": [],
      "stateMutability": "nonpayable",
      "type": "function"
    },
    {
      "inputs": [],
      "name": "getJobs",
      "outputs": [
        {
          "components": [
            {
              "internalType": "uint256",
              "name": "id",
              "type": "uint256"
            },
            {
              "internalType": "string",
              "name": "jobName",
              "type": "string"
            },
            {
              "internalType": "string",
              "name": "jobDescription",
              "type": "string"
            },
            {
              "internalType": "enum freelancing.Selection",
              "name": "progress",
              "type": "uint8"
            },
            {
              "internalType": "bool",
              "name": "isSelected",
              "type": "bool"
            },
            {
              "internalType": "address",
              "name": "lancer",
              "type": "address"
            },
            {
              "internalType": "uint256",
              "name": "amount",
              "type": "uint256"
            }
          ],
          "internalType": "struct freelancing.Job[]",
          "name": "",
          "type": "tuple[]"
        }
      ],
      "stateMutability": "view",
      "type": "function",
      "constant": true
    },
    {
      "inputs": [
        {
          "internalType": "uint256",
          "name": "id",
          "type": "uint256"
        },
        {
          "internalType": "address",
          "name": "lancer",
          "type": "address"
        },
        {
          "internalType": "string",
          "name": "name",
          "type": "string"
        },
        {
          "internalType": "bool",
          "name": "status",
          "type": "bool"
        }
      ],
      "name": "selectJob",
      "outputs": [],
      "stateMutability": "nonpayable",
      "type": "function"
    },
    {
      "inputs": [],
      "name": "getAllProposals",
      "outputs": [
        {
          "components": [
            {
              "internalType": "uint256",
              "name": "id",
              "type": "uint256"
            },
            {
              "internalType": "address",
              "name": "freelancer_address",
              "type": "address"
            },
            {
              "internalType": "string",
              "name": "name",
              "type": "string"
            },
            {
              "internalType": "bool",
              "name": "status",
              "type": "bool"
            }
          ],
          "internalType": "struct freelancing.Proposal[]",
          "name": "",
          "type": "tuple[]"
        }
      ],
      "stateMutability": "view",
      "type": "function",
      "constant": true
    },
    {
      "inputs": [
        {
          "internalType": "address",
          "name": "client",
          "type": "address"
        },
        {
          "internalType": "address",
          "name": "lancer",
          "type": "address"
        },
        {
          "internalType": "bool",
          "name": "status",
          "type": "bool"
        }
      ],
      "name": "selectProposal",
      "outputs": [],
      "stateMutability": "nonpayable",
      "type": "function"
    },
    {
      "inputs": [
        {
          "internalType": "address",
          "name": "client",
          "type": "address"
        },
        {
          "internalType": "uint256",
          "name": "id",
          "type": "uint256"
        }
      ],
      "name": "complete",
      "outputs": [],
      "stateMutability": "nonpayable",
      "type": "function"
    }
  ],
  "bytecode": "0x608060405234801562000010575f80fd5b506040518060400160405280600b81526020017f457363726f77546f6b656e0000000000000000000000000000000000000000008152506040518060400160405280600281526020017f455400000000000000000000000000000000000000000000000000000000000081525081600390816200008e919062000644565b508060049081620000a0919062000644565b5050503360055f6101000a81548173ffffffffffffffffffffffffffffffffffffffff021916908373ffffffffffffffffffffffffffffffffffffffff1602179055506200012433620000f86200012a60201b60201c565b60ff16600a620001099190620008a5565b612710620001189190620008f5565b6200013260201b60201c565b62000a3e565b5f6012905090565b5f73ffffffffffffffffffffffffffffffffffffffff168273ffffffffffffffffffffffffffffffffffffffff1603620001a5575f6040517fec442f050000000000000000000000000000000000000000000000000000000081526004016200019c919062000982565b60405180910390fd5b620001b85f8383620001bc60201b60201c565b5050565b5f73ffffffffffffffffffffffffffffffffffffffff168373ffffffffffffffffffffffffffffffffffffffff160362000210578060025f8282546200020391906200099d565b92505081905550620002e1565b5f805f8573ffffffffffffffffffffffffffffffffffffffff1673ffffffffffffffffffffffffffffffffffffffff1681526020019081526020015f20549050818110156200029c578381836040517fe450d38c0000000000000000000000000000000000000000000000000000000081526004016200029393929190620009e8565b60405180910390fd5b8181035f808673ffffffffffffffffffffffffffffffffffffffff1673ffffffffffffffffffffffffffffffffffffffff1681526020019081526020015f2081905550505b5f73ffffffffffffffffffffffffffffffffffffffff168273ffffffffffffffffffffffffffffffffffffffff16036200032a578060025f828254039250508190555062000374565b805f808473ffffffffffffffffffffffffffffffffffffffff1673ffffffffffffffffffffffffffffffffffffffff1681526020019081526020015f205f82825401925050819055505b8173ffffffffffffffffffffffffffffffffffffffff168373ffffffffffffffffffffffffffffffffffffffff167fddf252ad1be2c89b69c2b068fc378daa952ba7f163c4a11628f55a4df523b3ef83604051620003d3919062000a23565b60405180910390a3505050565b5f81519050919050565b7f4e487b71000000000000000000000000000000000000000000000000000000005f52604160045260245ffd5b7f4e487b71000000000000000000000000000000000000000000000000000000005f52602260045260245ffd5b5f60028204905060018216806200045c57607f821691505b60208210810362000472576200047162000417565b5b50919050565b5f819050815f5260205f209050919050565b5f6020601f8301049050919050565b5f82821b905092915050565b5f60088302620004d67fffffffffffffffffffffffffffffffffffffffffffffffffffffffffffffffff8262000499565b620004e2868362000499565b95508019841693508086168417925050509392505050565b5f819050919050565b5f819050919050565b5f6200052c620005266200052084620004fa565b62000503565b620004fa565b9050919050565b5f819050919050565b62000547836200050c565b6200055f620005568262000533565b848454620004a5565b825550505050565b5f90565b6200057562000567565b620005828184846200053c565b505050565b5b81811015620005a9576200059d5f826200056b565b60018101905062000588565b5050565b601f821115620005f857620005c28162000478565b620005cd846200048a565b81016020851015620005dd578190505b620005f5620005ec856200048a565b83018262000587565b50505b505050565b5f82821c905092915050565b5f6200061a5f1984600802620005fd565b1980831691505092915050565b5f62000634838362000609565b9150826002028217905092915050565b6200064f82620003e0565b67ffffffffffffffff8111156200066b576200066a620003ea565b5b62000677825462000444565b62000684828285620005ad565b5f60209050601f831160018114620006ba575f8415620006a5578287015190505b620006b1858262000627565b86555062000720565b601f198416620006ca8662000478565b5f5b82811015620006f357848901518255600182019150602085019450602081019050620006cc565b868310156200071357848901516200070f601f89168262000609565b8355505b6001600288020188555050505b505050505050565b7f4e487b71000000000000000000000000000000000000000000000000000000005f52601160045260245ffd5b5f8160011c9050919050565b5f808291508390505b6001851115620007b2578086048111156200078a576200078962000728565b5b60018516156200079a5780820291505b8081029050620007aa8562000755565b94506200076a565b94509492505050565b5f82620007cc57600190506200089e565b81620007db575f90506200089e565b8160018114620007f45760028114620007ff5762000835565b60019150506200089e565b60ff84111562000814576200081362000728565b5b8360020a9150848211156200082e576200082d62000728565b5b506200089e565b5060208310610133831016604e8410600b84101617156200086f5782820a90508381111562000869576200086862000728565b5b6200089e565b6200087e848484600162000761565b9250905081840481111562000898576200089762000728565b5b81810290505b9392505050565b5f620008b182620004fa565b9150620008be83620004fa565b9250620008ed7fffffffffffffffffffffffffffffffffffffffffffffffffffffffffffffffff8484620007bb565b905092915050565b5f6200090182620004fa565b91506200090e83620004fa565b92508282026200091e81620004fa565b9150828204841483151762000938576200093762000728565b5b5092915050565b5f73ffffffffffffffffffffffffffffffffffffffff82169050919050565b5f6200096a826200093f565b9050919050565b6200097c816200095e565b82525050565b5f602082019050620009975f83018462000971565b92915050565b5f620009a982620004fa565b9150620009b683620004fa565b9250828201905080821115620009d157620009d062000728565b5b92915050565b620009e281620004fa565b82525050565b5f606082019050620009fd5f83018662000971565b62000a0c6020830185620009d7565b62000a1b6040830184620009d7565b949350505050565b5f60208201905062000a385f830184620009d7565b92915050565b612da28062000a4c5f395ff3fe608060405234801561000f575f80fd5b5060043610610135575f3560e01c806370a08231116100b6578063b1dea01b1161007a578063b1dea01b14610381578063b56120001461039f578063c1ac7a03146103bb578063cceb68f5146103d7578063dd62ed3e146103f5578063e1e5a82e1461042557610135565b806370a08231146102c95780638da5cb5b146102f957806395d89b4114610317578063a1c0d32f14610335578063a9059cbb1461035157610135565b80631a453a59116100fd5780631a453a591461020e57806323b872dd1461022a578063313ce5671461025a57806368581ebd146102785780636d06ec5f1461029657610135565b8063013cf08b1461013957806306fdde031461016c578063095ea7b31461018a5780630c33c522146101ba57806318160ddd146101f0575b5f80fd5b610153600480360381019061014e9190611f99565b610441565b60405161016394939291906120b6565b60405180910390f35b61017461052d565b6040516101819190612100565b60405180910390f35b6101a4600480360381019061019f919061214a565b6105bd565b6040516101b19190612188565b60405180910390f35b6101d460048036038101906101cf9190611f99565b6105df565b6040516101e79796959493929190612214565b60405180910390f35b6101f8610771565b604051610205919061228f565b60405180910390f35b61022860048036038101906102239190612333565b61077a565b005b610244600480360381019061023f91906123b7565b610973565b6040516102519190612188565b60405180910390f35b6102626109a1565b60405161026f9190612422565b60405180910390f35b6102806109a9565b60405161028d919061261a565b60405180910390f35b6102b060048036038101906102ab919061263a565b610d50565b6040516102c094939291906120b6565b60405180910390f35b6102e360048036038101906102de919061263a565b610e2d565b6040516102f0919061228f565b60405180910390f35b610301610e72565b60405161030e9190612665565b60405180910390f35b61031f610e97565b60405161032c9190612100565b60405180910390f35b61034f600480360381019061034a9190611f99565b610f27565b005b61036b6004803603810190610366919061214a565b610f9c565b6040516103789190612188565b60405180910390f35b610389610fbe565b604051610396919061267e565b60405180910390f35b6103b960048036038101906103b491906126ba565b610fc7565b005b6103d560048036038101906103d09190612771565b6111c0565b005b6103df611536565b6040516103ec91906128dc565b60405180910390f35b61040f600480360381019061040a91906128fc565b61169a565b60405161041c919061228f565b60405180910390f35b61043f600480360381019061043a919061214a565b61171c565b005b60078181548110610450575f80fd5b905f5260205f2090600402015f91509050805f015490806001015f9054906101000a900473ffffffffffffffffffffffffffffffffffffffff169080600201805461049a90612967565b80601f01602080910402602001604051908101604052809291908181526020018280546104c690612967565b80156105115780601f106104e857610100808354040283529160200191610511565b820191905f5260205f20905b8154815290600101906020018083116104f457829003601f168201915b505050505090806003015f9054906101000a900460ff16905084565b60606003805461053c90612967565b80601f016020809104026020016040519081016040528092919081815260200182805461056890612967565b80156105b35780601f1061058a576101008083540402835291602001916105b3565b820191905f5260205f20905b81548152906001019060200180831161059657829003601f168201915b5050505050905090565b5f806105c76118fa565b90506105d4818585611901565b600191505092915050565b600681815481106105ee575f80fd5b905f5260205f2090600502015f91509050805f01549080600101805461061390612967565b80601f016020809104026020016040519081016040528092919081815260200182805461063f90612967565b801561068a5780601f106106615761010080835404028352916020019161068a565b820191905f5260205f20905b81548152906001019060200180831161066d57829003601f168201915b50505050509080600201805461069f90612967565b80601f01602080910402602001604051908101604052809291908181526020018280546106cb90612967565b80156107165780601f106106ed57610100808354040283529160200191610716565b820191905f5260205f20905b8154815290600101906020018083116106f957829003601f168201915b505050505090806003015f9054906101000a900460ff16908060030160019054906101000a900460ff16908060030160029054906101000a900473ffffffffffffffffffffffffffffffffffffffff16908060040154905087565b5f600254905090565b5f60405180608001604052808781526020018673ffffffffffffffffffffffffffffffffffffffff16815260200185858080601f0160208091040260200160405190810160405280939291908181526020018383808284375f81840152601f19601f8201169050808301925050505050505081526020018315158152509050600781908060018154018082558091505060019003905f5260205f2090600402015f909190919091505f820151815f01556020820151816001015f6101000a81548173ffffffffffffffffffffffffffffffffffffffff021916908373ffffffffffffffffffffffffffffffffffffffff16021790555060408201518160020190816108859190612b61565b506060820151816003015f6101000a81548160ff02191690831515021790555050508060085f8773ffffffffffffffffffffffffffffffffffffffff1673ffffffffffffffffffffffffffffffffffffffff1681526020019081526020015f205f820151815f01556020820151816001015f6101000a81548173ffffffffffffffffffffffffffffffffffffffff021916908373ffffffffffffffffffffffffffffffffffffffff16021790555060408201518160020190816109489190612b61565b506060820151816003015f6101000a81548160ff021916908315150217905550905050505050505050565b5f8061097d6118fa565b905061098a858285611913565b6109958585856119a5565b60019150509392505050565b5f6012905090565b60605f60068054905067ffffffffffffffff8111156109cb576109ca612997565b5b604051908082528060200260200182016040528015610a0457816020015b6109f1611efc565b8152602001906001900390816109e95790505b5090505f805b600680549050811015610c965760068181548110610a2b57610a2a612c30565b5b905f5260205f20906005020160030160019054906101000a900460ff1615610c835760068181548110610a6157610a60612c30565b5b905f5260205f2090600502016040518060e00160405290815f8201548152602001600182018054610a9190612967565b80601f0160208091040260200160405190810160405280929190818152602001828054610abd90612967565b8015610b085780601f10610adf57610100808354040283529160200191610b08565b820191905f5260205f20905b815481529060010190602001808311610aeb57829003601f168201915b50505050508152602001600282018054610b2190612967565b80601f0160208091040260200160405190810160405280929190818152602001828054610b4d90612967565b8015610b985780601f10610b6f57610100808354040283529160200191610b98565b820191905f5260205f20905b815481529060010190602001808311610b7b57829003601f168201915b50505050508152602001600382015f9054906101000a900460ff166002811115610bc557610bc46121a1565b5b6002811115610bd757610bd66121a1565b5b81526020016003820160019054906101000a900460ff161515151581526020016003820160029054906101000a900473ffffffffffffffffffffffffffffffffffffffff1673ffffffffffffffffffffffffffffffffffffffff1673ffffffffffffffffffffffffffffffffffffffff168152602001600482015481525050838381518110610c6957610c68612c30565b5b60200260200101819052508180610c7f90612c8a565b9250505b8080610c8e90612c8a565b915050610a0a565b505f825167ffffffffffffffff811115610cb357610cb2612997565b5b604051908082528060200260200182016040528015610cec57816020015b610cd9611efc565b815260200190600190039081610cd15790505b5090505f5b8351811015610d4657838181518110610d0d57610d0c612c30565b5b6020026020010151828281518110610d2857610d27612c30565b5b60200260200101819052508080610d3e90612c8a565b915050610cf1565b5080935050505090565b6008602052805f5260405f205f91509050805f015490806001015f9054906101000a900473ffffffffffffffffffffffffffffffffffffffff1690806002018054610d9a90612967565b80601f0160208091040260200160405190810160405280929190818152602001828054610dc690612967565b8015610e115780601f10610de857610100808354040283529160200191610e11565b820191905f5260205f20905b815481529060010190602001808311610df457829003601f168201915b505050505090806003015f9054906101000a900460ff16905084565b5f805f8373ffffffffffffffffffffffffffffffffffffffff1673ffffffffffffffffffffffffffffffffffffffff1681526020019081526020015f20549050919050565b60055f9054906101000a900473ffffffffffffffffffffffffffffffffffffffff1681565b606060048054610ea690612967565b80601f0160208091040260200160405190810160405280929190818152602001828054610ed290612967565b8015610f1d5780601f10610ef457610100808354040283529160200191610f1d565b820191905f5260205f20905b815481529060010190602001808311610f0057829003601f168201915b5050505050905090565b60068181548110610f3b57610f3a612c30565b5b905f5260205f20906005020160030160019054906101000a900460ff16610f9957600160068281548110610f7257610f71612c30565b5b905f5260205f20906005020160030160016101000a81548160ff0219169083151502179055505b50565b5f80610fa66118fa565b9050610fb38185856119a5565b600191505092915050565b5f808091505090565b5f60068054905090505f6040518060e001604052808381526020018a8a8080601f0160208091040260200160405190810160405280939291908181526020018383808284375f81840152601f19601f82011690508083019250505050505050815260200188888080601f0160208091040260200160405190810160405280939291908181526020018383808284375f81840152601f19601f820116905080830192505050505050508152602001866002811115611087576110866121a1565b5b815260200185151581526020015f73ffffffffffffffffffffffffffffffffffffffff168152602001848152509050600681908060018154018082558091505060019003905f5260205f2090600502015f909190919091505f820151815f015560208201518160010190816110fc9190612b61565b5060408201518160020190816111129190612b61565b506060820151816003015f6101000a81548160ff0219169083600281111561113d5761113c6121a1565b5b021790555060808201518160030160016101000a81548160ff02191690831515021790555060a08201518160030160026101000a81548173ffffffffffffffffffffffffffffffffffffffff021916908373ffffffffffffffffffffffffffffffffffffffff16021790555060c082015181600401555050505050505050505050565b5f60085f8473ffffffffffffffffffffffffffffffffffffffff1673ffffffffffffffffffffffffffffffffffffffff1681526020019081526020015f206040518060800160405290815f8201548152602001600182015f9054906101000a900473ffffffffffffffffffffffffffffffffffffffff1673ffffffffffffffffffffffffffffffffffffffff1673ffffffffffffffffffffffffffffffffffffffff16815260200160028201805461127790612967565b80601f01602080910402602001604051908101604052809291908181526020018280546112a390612967565b80156112ee5780601f106112c5576101008083540402835291602001916112ee565b820191905f5260205f20905b8154815290600101906020018083116112d157829003601f168201915b50505050508152602001600382015f9054906101000a900460ff1615151515815250509050600181606001901515908115158152505060016006825f01518154811061133d5761133c612c30565b5b905f5260205f2090600502016003015f6101000a81548160ff0219169083600281111561136d5761136c6121a1565b5b02179055505f6006825f01518154811061138a57611389612c30565b5b905f5260205f2090600502016004015490506113a68482611a95565b836006835f0151815481106113be576113bd612c30565b5b905f5260205f20906005020160030160026101000a81548173ffffffffffffffffffffffffffffffffffffffff021916908373ffffffffffffffffffffffffffffffffffffffff1602179055508060095f8773ffffffffffffffffffffffffffffffffffffffff1673ffffffffffffffffffffffffffffffffffffffff1681526020019081526020015f20546114549190612cd1565b60095f8773ffffffffffffffffffffffffffffffffffffffff1673ffffffffffffffffffffffffffffffffffffffff1681526020019081526020015f20819055508060095f8673ffffffffffffffffffffffffffffffffffffffff1673ffffffffffffffffffffffffffffffffffffffff1681526020019081526020015f20546114de9190612d04565b60095f8673ffffffffffffffffffffffffffffffffffffffff1673ffffffffffffffffffffffffffffffffffffffff1681526020019081526020015f2081905550828260600190151590811515815250505050505050565b60606007805480602002602001604051908101604052809291908181526020015f905b82821015611691578382905f5260205f2090600402016040518060800160405290815f8201548152602001600182015f9054906101000a900473ffffffffffffffffffffffffffffffffffffffff1673ffffffffffffffffffffffffffffffffffffffff1673ffffffffffffffffffffffffffffffffffffffff1681526020016002820180546115e890612967565b80601f016020809104026020016040519081016040528092919081815260200182805461161490612967565b801561165f5780601f106116365761010080835404028352916020019161165f565b820191905f5260205f20905b81548152906001019060200180831161164257829003601f168201915b50505050508152602001600382015f9054906101000a900460ff16151515158152505081526020019060010190611559565b50505050905090565b5f60015f8473ffffffffffffffffffffffffffffffffffffffff1673ffffffffffffffffffffffffffffffffffffffff1681526020019081526020015f205f8373ffffffffffffffffffffffffffffffffffffffff1673ffffffffffffffffffffffffffffffffffffffff1681526020019081526020015f2054905092915050565b5f6006828154811061173157611730612c30565b5b905f5260205f20906005020160030160029054906101000a900473ffffffffffffffffffffffffffffffffffffffff1690505f6006838154811061177857611777612c30565b5b905f5260205f2090600502016004015490506002600684815481106117a05761179f612c30565b5b905f5260205f2090600502016003015f6101000a81548160ff021916908360028111156117d0576117cf6121a1565b5b02179055506117e08483836119a5565b8060095f3073ffffffffffffffffffffffffffffffffffffffff1673ffffffffffffffffffffffffffffffffffffffff1681526020019081526020015f20546118299190612cd1565b60095f3073ffffffffffffffffffffffffffffffffffffffff1673ffffffffffffffffffffffffffffffffffffffff1681526020019081526020015f20819055508060095f8473ffffffffffffffffffffffffffffffffffffffff1673ffffffffffffffffffffffffffffffffffffffff1681526020019081526020015f20546118b39190612cd1565b60095f8473ffffffffffffffffffffffffffffffffffffffff1673ffffffffffffffffffffffffffffffffffffffff1681526020019081526020015f208190555050505050565b5f33905090565b61190e8383836001611b14565b505050565b5f61191e848461169a565b90507fffffffffffffffffffffffffffffffffffffffffffffffffffffffffffffffff811461199f5781811015611990578281836040517ffb8f41b200000000000000000000000000000000000000000000000000000000815260040161198793929190612d37565b60405180910390fd5b61199e84848484035f611b14565b5b50505050565b5f73ffffffffffffffffffffffffffffffffffffffff168373ffffffffffffffffffffffffffffffffffffffff1603611a15575f6040517f96c6fd1e000000000000000000000000000000000000000000000000000000008152600401611a0c9190612665565b60405180910390fd5b5f73ffffffffffffffffffffffffffffffffffffffff168273ffffffffffffffffffffffffffffffffffffffff1603611a85575f6040517fec442f05000000000000000000000000000000000000000000000000000000008152600401611a7c9190612665565b60405180910390fd5b611a90838383611ce3565b505050565b5f73ffffffffffffffffffffffffffffffffffffffff168273ffffffffffffffffffffffffffffffffffffffff1603611b05575f6040517fec442f05000000000000000000000000000000000000000000000000000000008152600401611afc9190612665565b60405180910390fd5b611b105f8383611ce3565b5050565b5f73ffffffffffffffffffffffffffffffffffffffff168473ffffffffffffffffffffffffffffffffffffffff1603611b84575f6040517fe602df05000000000000000000000000000000000000000000000000000000008152600401611b7b9190612665565b60405180910390fd5b5f73ffffffffffffffffffffffffffffffffffffffff168373ffffffffffffffffffffffffffffffffffffffff1603611bf4575f6040517f94280d62000000000000000000000000000000000000000000000000000000008152600401611beb9190612665565b60405180910390fd5b8160015f8673ffffffffffffffffffffffffffffffffffffffff1673ffffffffffffffffffffffffffffffffffffffff1681526020019081526020015f205f8573ffffffffffffffffffffffffffffffffffffffff1673ffffffffffffffffffffffffffffffffffffffff1681526020019081526020015f20819055508015611cdd578273ffffffffffffffffffffffffffffffffffffffff168473ffffffffffffffffffffffffffffffffffffffff167f8c5be1e5ebec7d5bd14f71427d1e84f3dd0314c0f7b2291e5b200ac8c7c3b92584604051611cd4919061228f565b60405180910390a35b50505050565b5f73ffffffffffffffffffffffffffffffffffffffff168373ffffffffffffffffffffffffffffffffffffffff1603611d33578060025f828254611d279190612d04565b92505081905550611e01565b5f805f8573ffffffffffffffffffffffffffffffffffffffff1673ffffffffffffffffffffffffffffffffffffffff1681526020019081526020015f2054905081811015611dbc578381836040517fe450d38c000000000000000000000000000000000000000000000000000000008152600401611db393929190612d37565b60405180910390fd5b8181035f808673ffffffffffffffffffffffffffffffffffffffff1673ffffffffffffffffffffffffffffffffffffffff1681526020019081526020015f2081905550505b5f73ffffffffffffffffffffffffffffffffffffffff168273ffffffffffffffffffffffffffffffffffffffff1603611e48578060025f8282540392505081905550611e92565b805f808473ffffffffffffffffffffffffffffffffffffffff1673ffffffffffffffffffffffffffffffffffffffff1681526020019081526020015f205f82825401925050819055505b8173ffffffffffffffffffffffffffffffffffffffff168373ffffffffffffffffffffffffffffffffffffffff167fddf252ad1be2c89b69c2b068fc378daa952ba7f163c4a11628f55a4df523b3ef83604051611eef919061228f565b60405180910390a3505050565b6040518060e001604052805f815260200160608152602001606081526020015f6002811115611f2e57611f2d6121a1565b5b81526020015f151581526020015f73ffffffffffffffffffffffffffffffffffffffff1681526020015f81525090565b5f80fd5b5f80fd5b5f819050919050565b611f7881611f66565b8114611f82575f80fd5b50565b5f81359050611f9381611f6f565b92915050565b5f60208284031215611fae57611fad611f5e565b5b5f611fbb84828501611f85565b91505092915050565b611fcd81611f66565b82525050565b5f73ffffffffffffffffffffffffffffffffffffffff82169050919050565b5f611ffc82611fd3565b9050919050565b61200c81611ff2565b82525050565b5f81519050919050565b5f82825260208201905092915050565b5f5b8381101561204957808201518184015260208101905061202e565b5f8484015250505050565b5f601f19601f8301169050919050565b5f61206e82612012565b612078818561201c565b935061208881856020860161202c565b61209181612054565b840191505092915050565b5f8115159050919050565b6120b08161209c565b82525050565b5f6080820190506120c95f830187611fc4565b6120d66020830186612003565b81810360408301526120e88185612064565b90506120f760608301846120a7565b95945050505050565b5f6020820190508181035f8301526121188184612064565b905092915050565b61212981611ff2565b8114612133575f80fd5b50565b5f8135905061214481612120565b92915050565b5f80604083850312156121605761215f611f5e565b5b5f61216d85828601612136565b925050602061217e85828601611f85565b9150509250929050565b5f60208201905061219b5f8301846120a7565b92915050565b7f4e487b71000000000000000000000000000000000000000000000000000000005f52602160045260245ffd5b600381106121df576121de6121a1565b5b50565b5f8190506121ef826121ce565b919050565b5f6121fe826121e2565b9050919050565b61220e816121f4565b82525050565b5f60e0820190506122275f83018a611fc4565b81810360208301526122398189612064565b9050818103604083015261224d8188612064565b905061225c6060830187612205565b61226960808301866120a7565b61227660a0830185612003565b61228360c0830184611fc4565b98975050505050505050565b5f6020820190506122a25f830184611fc4565b92915050565b5f80fd5b5f80fd5b5f80fd5b5f8083601f8401126122c9576122c86122a8565b5b8235905067ffffffffffffffff8111156122e6576122e56122ac565b5b602083019150836001820283011115612302576123016122b0565b5b9250929050565b6123128161209c565b811461231c575f80fd5b50565b5f8135905061232d81612309565b92915050565b5f805f805f6080868803121561234c5761234b611f5e565b5b5f61235988828901611f85565b955050602061236a88828901612136565b945050604086013567ffffffffffffffff81111561238b5761238a611f62565b5b612397888289016122b4565b935093505060606123aa8882890161231f565b9150509295509295909350565b5f805f606084860312156123ce576123cd611f5e565b5b5f6123db86828701612136565b93505060206123ec86828701612136565b92505060406123fd86828701611f85565b9150509250925092565b5f60ff82169050919050565b61241c81612407565b82525050565b5f6020820190506124355f830184612413565b92915050565b5f81519050919050565b5f82825260208201905092915050565b5f819050602082019050919050565b61246d81611f66565b82525050565b5f82825260208201905092915050565b5f61248d82612012565b6124978185612473565b93506124a781856020860161202c565b6124b081612054565b840191505092915050565b6124c4816121f4565b82525050565b6124d38161209c565b82525050565b6124e281611ff2565b82525050565b5f60e083015f8301516124fd5f860182612464565b50602083015184820360208601526125158282612483565b9150506040830151848203604086015261252f8282612483565b915050606083015161254460608601826124bb565b50608083015161255760808601826124ca565b5060a083015161256a60a08601826124d9565b5060c083015161257d60c0860182612464565b508091505092915050565b5f61259383836124e8565b905092915050565b5f602082019050919050565b5f6125b18261243b565b6125bb8185612445565b9350836020820285016125cd85612455565b805f5b8581101561260857848403895281516125e98582612588565b94506125f48361259b565b925060208a019950506001810190506125d0565b50829750879550505050505092915050565b5f6020820190508181035f83015261263281846125a7565b905092915050565b5f6020828403121561264f5761264e611f5e565b5b5f61265c84828501612136565b91505092915050565b5f6020820190506126785f830184612003565b92915050565b5f6020820190506126915f830184612205565b92915050565b600381106126a3575f80fd5b50565b5f813590506126b481612697565b92915050565b5f805f805f805f60a0888a0312156126d5576126d4611f5e565b5b5f88013567ffffffffffffffff8111156126f2576126f1611f62565b5b6126fe8a828b016122b4565b9750975050602088013567ffffffffffffffff81111561272157612720611f62565b5b61272d8a828b016122b4565b955095505060406127408a828b016126a6565b93505060606127518a828b0161231f565b92505060806127628a828b01611f85565b91505092959891949750929550565b5f805f6060848603121561278857612787611f5e565b5b5f61279586828701612136565b93505060206127a686828701612136565b92505060406127b78682870161231f565b9150509250925092565b5f81519050919050565b5f82825260208201905092915050565b5f819050602082019050919050565b5f608083015f8301516127ff5f860182612464565b50602083015161281260208601826124d9565b506040830151848203604086015261282a8282612483565b915050606083015161283f60608601826124ca565b508091505092915050565b5f61285583836127ea565b905092915050565b5f602082019050919050565b5f612873826127c1565b61287d81856127cb565b93508360208202850161288f856127db565b805f5b858110156128ca57848403895281516128ab858261284a565b94506128b68361285d565b925060208a01995050600181019050612892565b50829750879550505050505092915050565b5f6020820190508181035f8301526128f48184612869565b905092915050565b5f806040838503121561291257612911611f5e565b5b5f61291f85828601612136565b925050602061293085828601612136565b9150509250929050565b7f4e487b71000000000000000000000000000000000000000000000000000000005f52602260045260245ffd5b5f600282049050600182168061297e57607f821691505b6020821081036129915761299061293a565b5b50919050565b7f4e487b71000000000000000000000000000000000000000000000000000000005f52604160045260245ffd5b5f819050815f5260205f209050919050565b5f6020601f8301049050919050565b5f82821b905092915050565b5f60088302612a207fffffffffffffffffffffffffffffffffffffffffffffffffffffffffffffffff826129e5565b612a2a86836129e5565b95508019841693508086168417925050509392505050565b5f819050919050565b5f612a65612a60612a5b84611f66565b612a42565b611f66565b9050919050565b5f819050919050565b612a7e83612a4b565b612a92612a8a82612a6c565b8484546129f1565b825550505050565b5f90565b612aa6612a9a565b612ab1818484612a75565b505050565b5b81811015612ad457612ac95f82612a9e565b600181019050612ab7565b5050565b601f821115612b1957612aea816129c4565b612af3846129d6565b81016020851015612b02578190505b612b16612b0e856129d6565b830182612ab6565b50505b505050565b5f82821c905092915050565b5f612b395f1984600802612b1e565b1980831691505092915050565b5f612b518383612b2a565b9150826002028217905092915050565b612b6a82612012565b67ffffffffffffffff811115612b8357612b82612997565b5b612b8d8254612967565b612b98828285612ad8565b5f60209050601f831160018114612bc9575f8415612bb7578287015190505b612bc18582612b46565b865550612c28565b601f198416612bd7866129c4565b5f5b82811015612bfe57848901518255600182019150602085019450602081019050612bd9565b86831015612c1b5784890151612c17601f891682612b2a565b8355505b6001600288020188555050505b505050505050565b7f4e487b71000000000000000000000000000000000000000000000000000000005f52603260045260245ffd5b7f4e487b71000000000000000000000000000000000000000000000000000000005f52601160045260245ffd5b5f612c9482611f66565b91507fffffffffffffffffffffffffffffffffffffffffffffffffffffffffffffffff8203612cc657612cc5612c5d565b5b600182019050919050565b5f612cdb82611f66565b9150612ce683611f66565b9250828203905081811115612cfe57612cfd612c5d565b5b92915050565b5f612d0e82611f66565b9150612d1983611f66565b9250828201905080821115612d3157612d30612c5d565b5b92915050565b5f606082019050612d4a5f830186612003565b612d576020830185611fc4565b612d646040830184611fc4565b94935050505056fea26469706673582212204cf7b11a897ec9e7c36a49bb93b152ab8a609eb4d1ae5ead847b12ad10acbf8e64736f6c63430008150033",
  "immutableReferences": {},
  "source": "// SPDX-License-Identifier: MIT\npragma solidity  ^0.8.21;\n// import \"./escrow.sol\";\nimport \"@openzeppelin/contracts/access/Ownable.sol\";\nimport \"@openzeppelin/contracts/access/AccessControl.sol\";\nimport \"@openzeppelin/contracts/token/ERC20/ERC20.sol\";\n\ncontract freelancing is ERC20 {\n    address public owner;\n    constructor() ERC20(\"EscrowToken\", \"ET\"){\n        owner = msg.sender;\n        _mint(msg.sender, 10000 * 10 ** uint(decimals()));\n    }\n\n    // function mintToken(address to, uint256 amount){\n    //    _mint(to, amount); \n    // }\n\n    enum Selection {open, ongoing, close}\n    function returnSelection() public pure returns(Selection){\n        Selection selection;\n        return selection;\n    }\n    struct Job{\n        uint256 id;\n        string jobName;\n        string jobDescription;\n        Selection progress;\n        bool isSelected;\n        address lancer;\n        uint256 amount;\n    }\n    Job[] public jobList;\n\n    struct Proposal{\n        uint256 id;\n        address freelancer_address;\n        string name;\n        bool status ;\n    }\n    Proposal[] public proposals;\n    mapping(address => Proposal) public proposalKeys; \n    // Escrow public escrowToken;\n\n\n    mapping(address => uint256) escrowBalances;\n\n    function postJob(string calldata jobName, string calldata jobDescription, Selection _progress, bool isSelected, uint256 amount) public{\n        uint256 id = jobList.length;\n       Job memory jobItem = Job({id: id, jobName: jobName, jobDescription: jobDescription, progress: _progress,\n                                isSelected: isSelected, lancer: 0x0000000000000000000000000000000000000000, amount: amount}); \n       jobList.push(jobItem);\n    }\n\n    function completeJob(uint256 id) public{\n       if(!jobList[id].isSelected){\n           jobList[id].isSelected = true;\n       } \n    }\n\n    function getJobs() external view returns (Job[] memory){\n       Job[] memory temporary = new Job[](jobList.length);\n       uint count = 0;\n       for(uint i=0; i<jobList.length; i++){\n           if(jobList[i].isSelected){\n               temporary[count] = jobList[i];\n               count++;\n           }\n       }\n       Job[] memory result = new Job[](temporary.length);\n       for(uint i=0; i<temporary.length; i++){\n           result[i] = temporary[i];\n       }\n       return result;\n    }\n\n    function selectJob(uint256 id, address lancer, string calldata name, bool status) public {\n        Proposal memory proposal = Proposal(id, lancer, name, status);\n        proposals.push(proposal);\n        proposalKeys[lancer] = proposal;\n    }\n\n    function getAllProposals() external view returns (Proposal[] memory){\n       return proposals;\n    }\n    function selectProposal(address client, address lancer, bool status) public {\n        Proposal memory selectedProposal = proposalKeys[lancer];\n        selectedProposal.status = true;\n\n        jobList[selectedProposal.id].progress = Selection.ongoing;\n        uint256 amount = jobList[selectedProposal.id].amount;\n        _mint(lancer, amount);\n\n        jobList[selectedProposal.id].lancer = lancer;\n        escrowBalances[client] = escrowBalances[client] - amount;\n        escrowBalances[lancer] = escrowBalances[lancer] + amount;\n        selectedProposal.status = status;\n    }\n    // function credit(address client, uint256 amount)public{\n    //     require(escrowToken.allowance(client, address(this)) >= amount, \"EscrowToken not allowed to transferFrom this buyer\");\n    //     escrowToken.transferFrom(client, address(this), amount);\n    //     escrowBalances[client] = escrowBalances[client] + amount;\n    //     escrowBalances[address(this)] = escrowBalances[address(this)] + amount;\n    // }\n    function complete(address client, uint256 id) public {\n        address lancer = jobList[id].lancer;\n        uint256 amount = jobList[id].amount;\n        jobList[id].progress = Selection.close;\n        _transfer(client, lancer, amount);\n        escrowBalances[address(this)] = escrowBalances[address(this)] - amount;\n        escrowBalances[lancer] = escrowBalances[lancer] - amount;\n    }\n}\n\n",
  "sourcePath": "/home/tardigrade/Documents/dev/BC/cat-2/projects/freelancing-react-app/contracts/freelancing.sol",
  "compiler": {
    "name": "solc",
    "version": "0.8.21+commit.d9974bed.Emscripten.clang"
  },
  "schemaVersion": "3.4.16",
  "updatedAt": "2024-03-27T18:30:03.650Z",
  "networkType": "ethereum",
  "devdoc": {
    "errors": {
      "ERC20InsufficientAllowance(address,uint256,uint256)": [
        {
          "details": "Indicates a failure with the `spender`s `allowance`. Used in transfers.",
          "params": {
            "allowance": "Amount of tokens a `spender` is allowed to operate with.",
            "needed": "Minimum amount required to perform a transfer.",
            "spender": "Address that may be allowed to operate on tokens without being their owner."
          }
        }
      ],
      "ERC20InsufficientBalance(address,uint256,uint256)": [
        {
          "details": "Indicates an error related to the current `balance` of a `sender`. Used in transfers.",
          "params": {
            "balance": "Current balance for the interacting account.",
            "needed": "Minimum amount required to perform a transfer.",
            "sender": "Address whose tokens are being transferred."
          }
        }
      ],
      "ERC20InvalidApprover(address)": [
        {
          "details": "Indicates a failure with the `approver` of a token to be approved. Used in approvals.",
          "params": {
            "approver": "Address initiating an approval operation."
          }
        }
      ],
      "ERC20InvalidReceiver(address)": [
        {
          "details": "Indicates a failure with the token `receiver`. Used in transfers.",
          "params": {
            "receiver": "Address to which tokens are being transferred."
          }
        }
      ],
      "ERC20InvalidSender(address)": [
        {
          "details": "Indicates a failure with the token `sender`. Used in transfers.",
          "params": {
            "sender": "Address whose tokens are being transferred."
          }
        }
      ],
      "ERC20InvalidSpender(address)": [
        {
          "details": "Indicates a failure with the `spender` to be approved. Used in approvals.",
          "params": {
            "spender": "Address that may be allowed to operate on tokens without being their owner."
          }
        }
      ]
    },
    "events": {
      "Approval(address,address,uint256)": {
        "details": "Emitted when the allowance of a `spender` for an `owner` is set by a call to {approve}. `value` is the new allowance."
      },
      "Transfer(address,address,uint256)": {
        "details": "Emitted when `value` tokens are moved from one account (`from`) to another (`to`). Note that `value` may be zero."
      }
    },
    "kind": "dev",
    "methods": {
      "allowance(address,address)": {
        "details": "See {IERC20-allowance}."
      },
      "approve(address,uint256)": {
        "details": "See {IERC20-approve}. NOTE: If `value` is the maximum `uint256`, the allowance is not updated on `transferFrom`. This is semantically equivalent to an infinite approval. Requirements: - `spender` cannot be the zero address."
      },
      "balanceOf(address)": {
        "details": "See {IERC20-balanceOf}."
      },
      "decimals()": {
        "details": "Returns the number of decimals used to get its user representation. For example, if `decimals` equals `2`, a balance of `505` tokens should be displayed to a user as `5.05` (`505 / 10 ** 2`). Tokens usually opt for a value of 18, imitating the relationship between Ether and Wei. This is the default value returned by this function, unless it's overridden. NOTE: This information is only used for _display_ purposes: it in no way affects any of the arithmetic of the contract, including {IERC20-balanceOf} and {IERC20-transfer}."
      },
      "name()": {
        "details": "Returns the name of the token."
      },
      "symbol()": {
        "details": "Returns the symbol of the token, usually a shorter version of the name."
      },
      "totalSupply()": {
        "details": "See {IERC20-totalSupply}."
      },
      "transfer(address,uint256)": {
        "details": "See {IERC20-transfer}. Requirements: - `to` cannot be the zero address. - the caller must have a balance of at least `value`."
      },
      "transferFrom(address,address,uint256)": {
        "details": "See {IERC20-transferFrom}. Emits an {Approval} event indicating the updated allowance. This is not required by the EIP. See the note at the beginning of {ERC20}. NOTE: Does not update the allowance if the current allowance is the maximum `uint256`. Requirements: - `from` and `to` cannot be the zero address. - `from` must have a balance of at least `value`. - the caller must have allowance for ``from``'s tokens of at least `value`."
      }
    },
    "version": 1
  },
  "userdoc": {
    "kind": "user",
    "methods": {},
    "version": 1
  }
}