{
  "contractName": "Freelancing",
  "abi": [
    {
      "inputs": [],
      "stateMutability": "nonpayable",
      "type": "constructor"
    },
    {
      "inputs": [
        {
          "internalType": "address",
          "name": "spender",
          "type": "address"
        },
        {
          "internalType": "uint256",
          "name": "allowance",
          "type": "uint256"
        },
        {
          "internalType": "uint256",
          "name": "needed",
          "type": "uint256"
        }
      ],
      "name": "ERC20InsufficientAllowance",
      "type": "error"
    },
    {
      "inputs": [
        {
          "internalType": "address",
          "name": "sender",
          "type": "address"
        },
        {
          "internalType": "uint256",
          "name": "balance",
          "type": "uint256"
        },
        {
          "internalType": "uint256",
          "name": "needed",
          "type": "uint256"
        }
      ],
      "name": "ERC20InsufficientBalance",
      "type": "error"
    },
    {
      "inputs": [
        {
          "internalType": "address",
          "name": "approver",
          "type": "address"
        }
      ],
      "name": "ERC20InvalidApprover",
      "type": "error"
    },
    {
      "inputs": [
        {
          "internalType": "address",
          "name": "receiver",
          "type": "address"
        }
      ],
      "name": "ERC20InvalidReceiver",
      "type": "error"
    },
    {
      "inputs": [
        {
          "internalType": "address",
          "name": "sender",
          "type": "address"
        }
      ],
      "name": "ERC20InvalidSender",
      "type": "error"
    },
    {
      "inputs": [
        {
          "internalType": "address",
          "name": "spender",
          "type": "address"
        }
      ],
      "name": "ERC20InvalidSpender",
      "type": "error"
    },
    {
      "anonymous": false,
      "inputs": [
        {
          "indexed": true,
          "internalType": "address",
          "name": "owner",
          "type": "address"
        },
        {
          "indexed": true,
          "internalType": "address",
          "name": "spender",
          "type": "address"
        },
        {
          "indexed": false,
          "internalType": "uint256",
          "name": "value",
          "type": "uint256"
        }
      ],
      "name": "Approval",
      "type": "event"
    },
    {
      "anonymous": false,
      "inputs": [
        {
          "indexed": true,
          "internalType": "address",
          "name": "from",
          "type": "address"
        },
        {
          "indexed": true,
          "internalType": "address",
          "name": "to",
          "type": "address"
        },
        {
          "indexed": false,
          "internalType": "uint256",
          "name": "value",
          "type": "uint256"
        }
      ],
      "name": "Transfer",
      "type": "event"
    },
    {
      "inputs": [
        {
          "internalType": "uint256",
          "name": "",
          "type": "uint256"
        }
      ],
      "name": "Accounts",
      "outputs": [
        {
          "internalType": "address",
          "name": "addr",
          "type": "address"
        },
        {
          "internalType": "string",
          "name": "Name",
          "type": "string"
        },
        {
          "internalType": "string",
          "name": "Password",
          "type": "string"
        }
      ],
      "stateMutability": "view",
      "type": "function",
      "constant": true
    },
    {
      "inputs": [
        {
          "internalType": "address",
          "name": "owner",
          "type": "address"
        },
        {
          "internalType": "address",
          "name": "spender",
          "type": "address"
        }
      ],
      "name": "allowance",
      "outputs": [
        {
          "internalType": "uint256",
          "name": "",
          "type": "uint256"
        }
      ],
      "stateMutability": "view",
      "type": "function",
      "constant": true
    },
    {
      "inputs": [
        {
          "internalType": "address",
          "name": "spender",
          "type": "address"
        },
        {
          "internalType": "uint256",
          "name": "value",
          "type": "uint256"
        }
      ],
      "name": "approve",
      "outputs": [
        {
          "internalType": "bool",
          "name": "",
          "type": "bool"
        }
      ],
      "stateMutability": "nonpayable",
      "type": "function"
    },
    {
      "inputs": [
        {
          "internalType": "address",
          "name": "account",
          "type": "address"
        }
      ],
      "name": "balanceOf",
      "outputs": [
        {
          "internalType": "uint256",
          "name": "",
          "type": "uint256"
        }
      ],
      "stateMutability": "view",
      "type": "function",
      "constant": true
    },
    {
      "inputs": [],
      "name": "decimals",
      "outputs": [
        {
          "internalType": "uint8",
          "name": "",
          "type": "uint8"
        }
      ],
      "stateMutability": "view",
      "type": "function",
      "constant": true
    },
    {
      "inputs": [
        {
          "internalType": "uint256",
          "name": "",
          "type": "uint256"
        }
      ],
      "name": "freelancers",
      "outputs": [
        {
          "internalType": "uint256",
          "name": "lancer_id",
          "type": "uint256"
        },
        {
          "internalType": "string",
          "name": "name",
          "type": "string"
        },
        {
          "internalType": "address",
          "name": "lancer_address",
          "type": "address"
        }
      ],
      "stateMutability": "view",
      "type": "function",
      "constant": true
    },
    {
      "inputs": [
        {
          "internalType": "uint256",
          "name": "",
          "type": "uint256"
        }
      ],
      "name": "jobList",
      "outputs": [
        {
          "internalType": "uint256",
          "name": "id",
          "type": "uint256"
        },
        {
          "internalType": "string",
          "name": "jobName",
          "type": "string"
        },
        {
          "internalType": "string",
          "name": "jobDescription",
          "type": "string"
        },
        {
          "internalType": "enum Freelancing.Selection",
          "name": "progress",
          "type": "uint8"
        },
        {
          "internalType": "bool",
          "name": "isSelected",
          "type": "bool"
        },
        {
          "internalType": "address",
          "name": "lancer",
          "type": "address"
        },
        {
          "internalType": "uint256",
          "name": "amount",
          "type": "uint256"
        }
      ],
      "stateMutability": "view",
      "type": "function",
      "constant": true
    },
    {
      "inputs": [
        {
          "internalType": "address",
          "name": "",
          "type": "address"
        },
        {
          "internalType": "uint256",
          "name": "",
          "type": "uint256"
        }
      ],
      "name": "myJobs",
      "outputs": [
        {
          "internalType": "uint256",
          "name": "id",
          "type": "uint256"
        },
        {
          "internalType": "string",
          "name": "jobName",
          "type": "string"
        },
        {
          "internalType": "string",
          "name": "jobDescription",
          "type": "string"
        },
        {
          "internalType": "enum Freelancing.Selection",
          "name": "progress",
          "type": "uint8"
        },
        {
          "internalType": "bool",
          "name": "isSelected",
          "type": "bool"
        },
        {
          "internalType": "address",
          "name": "lancer",
          "type": "address"
        },
        {
          "internalType": "uint256",
          "name": "amount",
          "type": "uint256"
        }
      ],
      "stateMutability": "view",
      "type": "function",
      "constant": true
    },
    {
      "inputs": [],
      "name": "name",
      "outputs": [
        {
          "internalType": "string",
          "name": "",
          "type": "string"
        }
      ],
      "stateMutability": "view",
      "type": "function",
      "constant": true
    },
    {
      "inputs": [],
      "name": "owner",
      "outputs": [
        {
          "internalType": "address",
          "name": "",
          "type": "address"
        }
      ],
      "stateMutability": "view",
      "type": "function",
      "constant": true
    },
    {
      "inputs": [
        {
          "internalType": "address",
          "name": "",
          "type": "address"
        }
      ],
      "name": "proposalKeys",
      "outputs": [
        {
          "internalType": "uint256",
          "name": "id",
          "type": "uint256"
        },
        {
          "internalType": "address",
          "name": "freelancer_address",
          "type": "address"
        },
        {
          "internalType": "string",
          "name": "name",
          "type": "string"
        },
        {
          "internalType": "bool",
          "name": "status",
          "type": "bool"
        }
      ],
      "stateMutability": "view",
      "type": "function",
      "constant": true
    },
    {
      "inputs": [
        {
          "internalType": "uint256",
          "name": "",
          "type": "uint256"
        }
      ],
      "name": "proposals",
      "outputs": [
        {
          "internalType": "uint256",
          "name": "id",
          "type": "uint256"
        },
        {
          "internalType": "address",
          "name": "freelancer_address",
          "type": "address"
        },
        {
          "internalType": "string",
          "name": "name",
          "type": "string"
        },
        {
          "internalType": "bool",
          "name": "status",
          "type": "bool"
        }
      ],
      "stateMutability": "view",
      "type": "function",
      "constant": true
    },
    {
      "inputs": [],
      "name": "symbol",
      "outputs": [
        {
          "internalType": "string",
          "name": "",
          "type": "string"
        }
      ],
      "stateMutability": "view",
      "type": "function",
      "constant": true
    },
    {
      "inputs": [],
      "name": "totalSupply",
      "outputs": [
        {
          "internalType": "uint256",
          "name": "",
          "type": "uint256"
        }
      ],
      "stateMutability": "view",
      "type": "function",
      "constant": true
    },
    {
      "inputs": [
        {
          "internalType": "address",
          "name": "to",
          "type": "address"
        },
        {
          "internalType": "uint256",
          "name": "value",
          "type": "uint256"
        }
      ],
      "name": "transfer",
      "outputs": [
        {
          "internalType": "bool",
          "name": "",
          "type": "bool"
        }
      ],
      "stateMutability": "nonpayable",
      "type": "function"
    },
    {
      "inputs": [
        {
          "internalType": "address",
          "name": "from",
          "type": "address"
        },
        {
          "internalType": "address",
          "name": "to",
          "type": "address"
        },
        {
          "internalType": "uint256",
          "name": "value",
          "type": "uint256"
        }
      ],
      "name": "transferFrom",
      "outputs": [
        {
          "internalType": "bool",
          "name": "",
          "type": "bool"
        }
      ],
      "stateMutability": "nonpayable",
      "type": "function"
    },
    {
      "inputs": [
        {
          "internalType": "uint256",
          "name": "",
          "type": "uint256"
        }
      ],
      "name": "usernames",
      "outputs": [
        {
          "internalType": "string",
          "name": "",
          "type": "string"
        }
      ],
      "stateMutability": "view",
      "type": "function",
      "constant": true
    },
    {
      "inputs": [],
      "name": "returnSelection",
      "outputs": [
        {
          "internalType": "enum Freelancing.Selection",
          "name": "",
          "type": "uint8"
        }
      ],
      "stateMutability": "pure",
      "type": "function",
      "constant": true
    },
    {
      "inputs": [
        {
          "internalType": "address",
          "name": "client",
          "type": "address"
        }
      ],
      "name": "getAllProposals",
      "outputs": [
        {
          "components": [
            {
              "internalType": "uint256",
              "name": "id",
              "type": "uint256"
            },
            {
              "internalType": "address",
              "name": "freelancer_address",
              "type": "address"
            },
            {
              "internalType": "string",
              "name": "name",
              "type": "string"
            },
            {
              "internalType": "bool",
              "name": "status",
              "type": "bool"
            }
          ],
          "internalType": "struct Freelancing.Proposal",
          "name": "",
          "type": "tuple"
        }
      ],
      "stateMutability": "view",
      "type": "function",
      "constant": true
    },
    {
      "inputs": [
        {
          "internalType": "string",
          "name": "jobName",
          "type": "string"
        },
        {
          "internalType": "string",
          "name": "jobDescription",
          "type": "string"
        },
        {
          "internalType": "enum Freelancing.Selection",
          "name": "_progress",
          "type": "uint8"
        },
        {
          "internalType": "bool",
          "name": "isSelected",
          "type": "bool"
        },
        {
          "internalType": "uint256",
          "name": "amount",
          "type": "uint256"
        }
      ],
      "name": "postJob",
      "outputs": [],
      "stateMutability": "nonpayable",
      "type": "function"
    },
    {
      "inputs": [
        {
          "internalType": "uint256",
          "name": "id",
          "type": "uint256"
        }
      ],
      "name": "completeJob",
      "outputs": [],
      "stateMutability": "nonpayable",
      "type": "function"
    },
    {
      "inputs": [],
      "name": "login",
      "outputs": [
        {
          "internalType": "bool",
          "name": "",
          "type": "bool"
        }
      ],
      "stateMutability": "view",
      "type": "function",
      "constant": true
    },
    {
      "inputs": [
        {
          "internalType": "string",
          "name": "name",
          "type": "string"
        },
        {
          "internalType": "string",
          "name": "password",
          "type": "string"
        }
      ],
      "name": "sigIn",
      "outputs": [
        {
          "internalType": "uint256",
          "name": "",
          "type": "uint256"
        }
      ],
      "stateMutability": "nonpayable",
      "type": "function"
    },
    {
      "inputs": [
        {
          "internalType": "address",
          "name": "lancer",
          "type": "address"
        }
      ],
      "name": "getMyJobs",
      "outputs": [
        {
          "components": [
            {
              "internalType": "uint256",
              "name": "id",
              "type": "uint256"
            },
            {
              "internalType": "string",
              "name": "jobName",
              "type": "string"
            },
            {
              "internalType": "string",
              "name": "jobDescription",
              "type": "string"
            },
            {
              "internalType": "enum Freelancing.Selection",
              "name": "progress",
              "type": "uint8"
            },
            {
              "internalType": "bool",
              "name": "isSelected",
              "type": "bool"
            },
            {
              "internalType": "address",
              "name": "lancer",
              "type": "address"
            },
            {
              "internalType": "uint256",
              "name": "amount",
              "type": "uint256"
            }
          ],
          "internalType": "struct Freelancing.Job[]",
          "name": "",
          "type": "tuple[]"
        }
      ],
      "stateMutability": "view",
      "type": "function",
      "constant": true
    },
    {
      "inputs": [
        {
          "internalType": "string",
          "name": "name",
          "type": "string"
        }
      ],
      "name": "addFreelancers",
      "outputs": [],
      "stateMutability": "nonpayable",
      "type": "function"
    },
    {
      "inputs": [],
      "name": "getAllFreelancers",
      "outputs": [
        {
          "components": [
            {
              "internalType": "uint256",
              "name": "lancer_id",
              "type": "uint256"
            },
            {
              "internalType": "string",
              "name": "name",
              "type": "string"
            },
            {
              "internalType": "address",
              "name": "lancer_address",
              "type": "address"
            }
          ],
          "internalType": "struct Freelancing.Freelancer[]",
          "name": "",
          "type": "tuple[]"
        }
      ],
      "stateMutability": "view",
      "type": "function",
      "constant": true
    },
    {
      "inputs": [],
      "name": "getJobs",
      "outputs": [
        {
          "components": [
            {
              "internalType": "uint256",
              "name": "id",
              "type": "uint256"
            },
            {
              "internalType": "string",
              "name": "jobName",
              "type": "string"
            },
            {
              "internalType": "string",
              "name": "jobDescription",
              "type": "string"
            },
            {
              "internalType": "enum Freelancing.Selection",
              "name": "progress",
              "type": "uint8"
            },
            {
              "internalType": "bool",
              "name": "isSelected",
              "type": "bool"
            },
            {
              "internalType": "address",
              "name": "lancer",
              "type": "address"
            },
            {
              "internalType": "uint256",
              "name": "amount",
              "type": "uint256"
            }
          ],
          "internalType": "struct Freelancing.Job[]",
          "name": "",
          "type": "tuple[]"
        }
      ],
      "stateMutability": "view",
      "type": "function",
      "constant": true
    },
    {
      "inputs": [
        {
          "internalType": "uint256",
          "name": "id",
          "type": "uint256"
        },
        {
          "internalType": "address",
          "name": "lancer",
          "type": "address"
        },
        {
          "internalType": "string",
          "name": "name",
          "type": "string"
        },
        {
          "internalType": "bool",
          "name": "status",
          "type": "bool"
        }
      ],
      "name": "selectJob",
      "outputs": [
        {
          "internalType": "bool",
          "name": "",
          "type": "bool"
        }
      ],
      "stateMutability": "nonpayable",
      "type": "function"
    },
    {
      "inputs": [
        {
          "internalType": "address",
          "name": "client",
          "type": "address"
        },
        {
          "internalType": "address",
          "name": "lancer",
          "type": "address"
        },
        {
          "internalType": "bool",
          "name": "status",
          "type": "bool"
        }
      ],
      "name": "selectProposal",
      "outputs": [],
      "stateMutability": "nonpayable",
      "type": "function"
    },
    {
      "inputs": [
        {
          "internalType": "address",
          "name": "client",
          "type": "address"
        },
        {
          "internalType": "uint256",
          "name": "id",
          "type": "uint256"
        }
      ],
      "name": "complete",
      "outputs": [],
      "stateMutability": "nonpayable",
      "type": "function"
    }
  ],
  "bytecode": "0x608060405234801562000010575f80fd5b506040518060400160405280600b81526020017f457363726f77546f6b656e0000000000000000000000000000000000000000008152506040518060400160405280600281526020017f455400000000000000000000000000000000000000000000000000000000000081525081600390816200008e919062000644565b508060049081620000a0919062000644565b5050503360055f6101000a81548173ffffffffffffffffffffffffffffffffffffffff021916908373ffffffffffffffffffffffffffffffffffffffff1602179055506200012433620000f86200012a60201b60201c565b60ff16600a620001099190620008a5565b612710620001189190620008f5565b6200013260201b60201c565b62000a3e565b5f6012905090565b5f73ffffffffffffffffffffffffffffffffffffffff168273ffffffffffffffffffffffffffffffffffffffff1603620001a5575f6040517fec442f050000000000000000000000000000000000000000000000000000000081526004016200019c919062000982565b60405180910390fd5b620001b85f8383620001bc60201b60201c565b5050565b5f73ffffffffffffffffffffffffffffffffffffffff168373ffffffffffffffffffffffffffffffffffffffff160362000210578060025f8282546200020391906200099d565b92505081905550620002e1565b5f805f8573ffffffffffffffffffffffffffffffffffffffff1673ffffffffffffffffffffffffffffffffffffffff1681526020019081526020015f20549050818110156200029c578381836040517fe450d38c0000000000000000000000000000000000000000000000000000000081526004016200029393929190620009e8565b60405180910390fd5b8181035f808673ffffffffffffffffffffffffffffffffffffffff1673ffffffffffffffffffffffffffffffffffffffff1681526020019081526020015f2081905550505b5f73ffffffffffffffffffffffffffffffffffffffff168273ffffffffffffffffffffffffffffffffffffffff16036200032a578060025f828254039250508190555062000374565b805f808473ffffffffffffffffffffffffffffffffffffffff1673ffffffffffffffffffffffffffffffffffffffff1681526020019081526020015f205f82825401925050819055505b8173ffffffffffffffffffffffffffffffffffffffff168373ffffffffffffffffffffffffffffffffffffffff167fddf252ad1be2c89b69c2b068fc378daa952ba7f163c4a11628f55a4df523b3ef83604051620003d3919062000a23565b60405180910390a3505050565b5f81519050919050565b7f4e487b71000000000000000000000000000000000000000000000000000000005f52604160045260245ffd5b7f4e487b71000000000000000000000000000000000000000000000000000000005f52602260045260245ffd5b5f60028204905060018216806200045c57607f821691505b60208210810362000472576200047162000417565b5b50919050565b5f819050815f5260205f209050919050565b5f6020601f8301049050919050565b5f82821b905092915050565b5f60088302620004d67fffffffffffffffffffffffffffffffffffffffffffffffffffffffffffffffff8262000499565b620004e2868362000499565b95508019841693508086168417925050509392505050565b5f819050919050565b5f819050919050565b5f6200052c620005266200052084620004fa565b62000503565b620004fa565b9050919050565b5f819050919050565b62000547836200050c565b6200055f620005568262000533565b848454620004a5565b825550505050565b5f90565b6200057562000567565b620005828184846200053c565b505050565b5b81811015620005a9576200059d5f826200056b565b60018101905062000588565b5050565b601f821115620005f857620005c28162000478565b620005cd846200048a565b81016020851015620005dd578190505b620005f5620005ec856200048a565b83018262000587565b50505b505050565b5f82821c905092915050565b5f6200061a5f1984600802620005fd565b1980831691505092915050565b5f62000634838362000609565b9150826002028217905092915050565b6200064f82620003e0565b67ffffffffffffffff8111156200066b576200066a620003ea565b5b62000677825462000444565b62000684828285620005ad565b5f60209050601f831160018114620006ba575f8415620006a5578287015190505b620006b1858262000627565b86555062000720565b601f198416620006ca8662000478565b5f5b82811015620006f357848901518255600182019150602085019450602081019050620006cc565b868310156200071357848901516200070f601f89168262000609565b8355505b6001600288020188555050505b505050505050565b7f4e487b71000000000000000000000000000000000000000000000000000000005f52601160045260245ffd5b5f8160011c9050919050565b5f808291508390505b6001851115620007b2578086048111156200078a576200078962000728565b5b60018516156200079a5780820291505b8081029050620007aa8562000755565b94506200076a565b94509492505050565b5f82620007cc57600190506200089e565b81620007db575f90506200089e565b8160018114620007f45760028114620007ff5762000835565b60019150506200089e565b60ff84111562000814576200081362000728565b5b8360020a9150848211156200082e576200082d62000728565b5b506200089e565b5060208310610133831016604e8410600b84101617156200086f5782820a90508381111562000869576200086862000728565b5b6200089e565b6200087e848484600162000761565b9250905081840481111562000898576200089762000728565b5b81810290505b9392505050565b5f620008b182620004fa565b9150620008be83620004fa565b9250620008ed7fffffffffffffffffffffffffffffffffffffffffffffffffffffffffffffffff8484620007bb565b905092915050565b5f6200090182620004fa565b91506200090e83620004fa565b92508282026200091e81620004fa565b9150828204841483151762000938576200093762000728565b5b5092915050565b5f73ffffffffffffffffffffffffffffffffffffffff82169050919050565b5f6200096a826200093f565b9050919050565b6200097c816200095e565b82525050565b5f602082019050620009975f83018462000971565b92915050565b5f620009a982620004fa565b9150620009b683620004fa565b9250828201905080821115620009d157620009d062000728565b5b92915050565b620009e281620004fa565b82525050565b5f606082019050620009fd5f83018662000971565b62000a0c6020830185620009d7565b62000a1b6040830184620009d7565b949350505050565b5f60208201905062000a385f830184620009d7565b92915050565b6145158062000a4c5f395ff3fe608060405234801561000f575f80fd5b50600436106101d8575f3560e01c806395d89b4111610102578063c078b4a2116100a0578063dd62ed3e1161006f578063dd62ed3e146105de578063e1e5a82e1461060e578063eb13713d1461062a578063fce2ce771461065a576101d8565b8063c078b4a214610540578063c1ac7a0314610570578063d25e947a1461058c578063d4786b14146105a8576101d8565b8063a9059cbb116100dc578063a9059cbb146104b8578063b1dea01b146104e8578063b34e97e814610506578063b561200014610524576101d8565b806395d89b411461044e5780639853d9221461046c578063a1c0d32f1461049c576101d8565b80631a453a591161017a57806368581ebd1161014957806368581ebd146103af5780636d06ec5f146103cd57806370a08231146104005780638da5cb5b14610430576101d8565b80631a453a591461031357806323b872dd14610343578063313ce56714610373578063359b248c14610391576101d8565b80630b9364d8116101b65780630b9364d81461025d5780630c33c5221461028f578063136dd963146102c557806318160ddd146102f5576101d8565b8063013cf08b146101dc57806306fdde031461020f578063095ea7b31461022d575b5f80fd5b6101f660048036038101906101f1919061320e565b61068c565b604051610206949392919061332b565b60405180910390f35b610217610778565b6040516102249190613375565b60405180910390f35b610247600480360381019061024291906133bf565b610808565b60405161025491906133fd565b60405180910390f35b6102776004803603810190610272919061320e565b61082a565b60405161028693929190613416565b60405180910390f35b6102a960048036038101906102a4919061320e565b610904565b6040516102bc97969594939291906134c5565b60405180910390f35b6102df60048036038101906102da919061320e565b610a96565b6040516102ec9190613375565b60405180910390f35b6102fd610b3c565b60405161030a9190613540565b60405180910390f35b61032d600480360381019061032891906135e4565b610b45565b60405161033a91906133fd565b60405180910390f35b61035d60048036038101906103589190613668565b610ed5565b60405161036a91906133fd565b60405180910390f35b61037b610f03565b60405161038891906136d3565b60405180910390f35b610399610f0b565b6040516103a6919061385a565b60405180910390f35b6103b7611055565b6040516103c491906139f3565b60405180910390f35b6103e760048036038101906103e29190613a13565b6113fc565b6040516103f7949392919061332b565b60405180910390f35b61041a60048036038101906104159190613a13565b6114d9565b6040516104279190613540565b60405180910390f35b61043861151e565b6040516104459190613a3e565b60405180910390f35b610456611543565b6040516104639190613375565b60405180910390f35b61048660048036038101906104819190613a13565b6115d3565b6040516104939190613ab7565b60405180910390f35b6104b660048036038101906104b1919061320e565b611732565b005b6104d260048036038101906104cd91906133bf565b6117a7565b6040516104df91906133fd565b60405180910390f35b6104f06117c9565b6040516104fd9190613ad7565b60405180910390f35b61050e6117d2565b60405161051b91906133fd565b60405180910390f35b61053e60048036038101906105399190613b13565b61187e565b005b61055a60048036038101906105559190613a13565b611a77565b60405161056791906139f3565b60405180910390f35b61058a60048036038101906105859190613bca565b611f8e565b005b6105a660048036038101906105a19190613c1a565b612275565b005b6105c260048036038101906105bd91906133bf565b61238f565b6040516105d597969594939291906134c5565b60405180910390f35b6105f860048036038101906105f39190613c65565b61252c565b6040516106059190613540565b60405180910390f35b610628600480360381019061062391906133bf565b6125ae565b005b610644600480360381019061063f9190613ca3565b612782565b6040516106519190613540565b60405180910390f35b610674600480360381019061066f919061320e565b6129d2565b60405161068393929190613d21565b60405180910390f35b6008818154811061069b575f80fd5b905f5260205f2090600402015f91509050805f015490806001015f9054906101000a900473ffffffffffffffffffffffffffffffffffffffff16908060020180546106e590613d91565b80601f016020809104026020016040519081016040528092919081815260200182805461071190613d91565b801561075c5780601f106107335761010080835404028352916020019161075c565b820191905f5260205f20905b81548152906001019060200180831161073f57829003601f168201915b505050505090806003015f9054906101000a900460ff16905084565b60606003805461078790613d91565b80601f01602080910402602001604051908101604052809291908181526020018280546107b390613d91565b80156107fe5780601f106107d5576101008083540402835291602001916107fe565b820191905f5260205f20905b8154815290600101906020018083116107e157829003601f168201915b5050505050905090565b5f80610812612b32565b905061081f818585612b39565b600191505092915050565b60068181548110610839575f80fd5b905f5260205f2090600302015f91509050805f01549080600101805461085e90613d91565b80601f016020809104026020016040519081016040528092919081815260200182805461088a90613d91565b80156108d55780601f106108ac576101008083540402835291602001916108d5565b820191905f5260205f20905b8154815290600101906020018083116108b857829003601f168201915b505050505090806002015f9054906101000a900473ffffffffffffffffffffffffffffffffffffffff16905083565b60078181548110610913575f80fd5b905f5260205f2090600502015f91509050805f01549080600101805461093890613d91565b80601f016020809104026020016040519081016040528092919081815260200182805461096490613d91565b80156109af5780601f10610986576101008083540402835291602001916109af565b820191905f5260205f20905b81548152906001019060200180831161099257829003601f168201915b5050505050908060020180546109c490613d91565b80601f01602080910402602001604051908101604052809291908181526020018280546109f090613d91565b8015610a3b5780601f10610a1257610100808354040283529160200191610a3b565b820191905f5260205f20905b815481529060010190602001808311610a1e57829003601f168201915b505050505090806003015f9054906101000a900460ff16908060030160019054906101000a900460ff16908060030160029054906101000a900473ffffffffffffffffffffffffffffffffffffffff16908060040154905087565b600a8181548110610aa5575f80fd5b905f5260205f20015f915090508054610abd90613d91565b80601f0160208091040260200160405190810160405280929190818152602001828054610ae990613d91565b8015610b345780601f10610b0b57610100808354040283529160200191610b34565b820191905f5260205f20905b815481529060010190602001808311610b1757829003601f168201915b505050505081565b5f600254905090565b5f8060405180608001604052808881526020018773ffffffffffffffffffffffffffffffffffffffff16815260200186868080601f0160208091040260200160405190810160405280939291908181526020018383808284375f81840152601f19601f8201169050808301925050505050505081526020018415158152509050600881908060018154018082558091505060019003905f5260205f2090600402015f909190919091505f820151815f01556020820151816001015f6101000a81548173ffffffffffffffffffffffffffffffffffffffff021916908373ffffffffffffffffffffffffffffffffffffffff1602179055506040820151816002019081610c519190613f8b565b506060820151816003015f6101000a81548160ff021916908315150217905550505080600c5f8873ffffffffffffffffffffffffffffffffffffffff1673ffffffffffffffffffffffffffffffffffffffff1681526020019081526020015f205f820151815f01556020820151816001015f6101000a81548173ffffffffffffffffffffffffffffffffffffffff021916908373ffffffffffffffffffffffffffffffffffffffff1602179055506040820151816002019081610d149190613f8b565b506060820151816003015f6101000a81548160ff021916908315150217905550905050600b5f8773ffffffffffffffffffffffffffffffffffffffff1673ffffffffffffffffffffffffffffffffffffffff1681526020019081526020015f2060078881548110610d8857610d8761405a565b5b905f5260205f209060050201908060018154018082558091505060019003905f5260205f2090600502015f909190919091505f820154815f015560018201816001019081610dd6919061409c565b5060028201816002019081610deb919061409c565b50600382015f9054906101000a900460ff16816003015f6101000a81548160ff02191690836002811115610e2257610e21613452565b5b02179055506003820160019054906101000a900460ff168160030160016101000a81548160ff0219169083151502179055506003820160029054906101000a900473ffffffffffffffffffffffffffffffffffffffff168160030160026101000a81548173ffffffffffffffffffffffffffffffffffffffff021916908373ffffffffffffffffffffffffffffffffffffffff160217905550600482015481600401555050600191505095945050505050565b5f80610edf612b32565b9050610eec858285612b4b565b610ef7858585612bdd565b60019150509392505050565b5f6012905090565b60606006805480602002602001604051908101604052809291908181526020015f905b8282101561104c578382905f5260205f2090600302016040518060600160405290815f8201548152602001600182018054610f6890613d91565b80601f0160208091040260200160405190810160405280929190818152602001828054610f9490613d91565b8015610fdf5780601f10610fb657610100808354040283529160200191610fdf565b820191905f5260205f20905b815481529060010190602001808311610fc257829003601f168201915b50505050508152602001600282015f9054906101000a900473ffffffffffffffffffffffffffffffffffffffff1673ffffffffffffffffffffffffffffffffffffffff1673ffffffffffffffffffffffffffffffffffffffff168152505081526020019060010190610f2e565b50505050905090565b60605f60078054905067ffffffffffffffff81111561107757611076613dc1565b5b6040519080825280602002602001820160405280156110b057816020015b61109d613134565b8152602001906001900390816110955790505b5090505f805b60078054905081101561134257600781815481106110d7576110d661405a565b5b905f5260205f20906005020160030160019054906101000a900460ff161561132f576007818154811061110d5761110c61405a565b5b905f5260205f2090600502016040518060e00160405290815f820154815260200160018201805461113d90613d91565b80601f016020809104026020016040519081016040528092919081815260200182805461116990613d91565b80156111b45780601f1061118b576101008083540402835291602001916111b4565b820191905f5260205f20905b81548152906001019060200180831161119757829003601f168201915b505050505081526020016002820180546111cd90613d91565b80601f01602080910402602001604051908101604052809291908181526020018280546111f990613d91565b80156112445780601f1061121b57610100808354040283529160200191611244565b820191905f5260205f20905b81548152906001019060200180831161122757829003601f168201915b50505050508152602001600382015f9054906101000a900460ff16600281111561127157611270613452565b5b600281111561128357611282613452565b5b81526020016003820160019054906101000a900460ff161515151581526020016003820160029054906101000a900473ffffffffffffffffffffffffffffffffffffffff1673ffffffffffffffffffffffffffffffffffffffff1673ffffffffffffffffffffffffffffffffffffffff1681526020016004820154815250508383815181106113155761131461405a565b5b6020026020010181905250818061132b906141ae565b9250505b808061133a906141ae565b9150506110b6565b505f825167ffffffffffffffff81111561135f5761135e613dc1565b5b60405190808252806020026020018201604052801561139857816020015b611385613134565b81526020019060019003908161137d5790505b5090505f5b83518110156113f2578381815181106113b9576113b861405a565b5b60200260200101518282815181106113d4576113d361405a565b5b602002602001018190525080806113ea906141ae565b91505061139d565b5080935050505090565b600c602052805f5260405f205f91509050805f015490806001015f9054906101000a900473ffffffffffffffffffffffffffffffffffffffff169080600201805461144690613d91565b80601f016020809104026020016040519081016040528092919081815260200182805461147290613d91565b80156114bd5780601f10611494576101008083540402835291602001916114bd565b820191905f5260205f20905b8154815290600101906020018083116114a057829003601f168201915b505050505090806003015f9054906101000a900460ff16905084565b5f805f8373ffffffffffffffffffffffffffffffffffffffff1673ffffffffffffffffffffffffffffffffffffffff1681526020019081526020015f20549050919050565b60055f9054906101000a900473ffffffffffffffffffffffffffffffffffffffff1681565b60606004805461155290613d91565b80601f016020809104026020016040519081016040528092919081815260200182805461157e90613d91565b80156115c95780601f106115a0576101008083540402835291602001916115c9565b820191905f5260205f20905b8154815290600101906020018083116115ac57829003601f168201915b5050505050905090565b6115db613196565b600c5f8373ffffffffffffffffffffffffffffffffffffffff1673ffffffffffffffffffffffffffffffffffffffff1681526020019081526020015f206040518060800160405290815f8201548152602001600182015f9054906101000a900473ffffffffffffffffffffffffffffffffffffffff1673ffffffffffffffffffffffffffffffffffffffff1673ffffffffffffffffffffffffffffffffffffffff16815260200160028201805461169190613d91565b80601f01602080910402602001604051908101604052809291908181526020018280546116bd90613d91565b80156117085780601f106116df57610100808354040283529160200191611708565b820191905f5260205f20905b8154815290600101906020018083116116eb57829003601f168201915b50505050508152602001600382015f9054906101000a900460ff1615151515815250509050919050565b600781815481106117465761174561405a565b5b905f5260205f20906005020160030160019054906101000a900460ff166117a45760016007828154811061177d5761177c61405a565b5b905f5260205f20906005020160030160016101000a81548160ff0219169083151502179055505b50565b5f806117b1612b32565b90506117be818585612bdd565b600191505092915050565b5f808091505090565b5f805f90505b600980549050811015611876573373ffffffffffffffffffffffffffffffffffffffff16600982815481106118105761180f61405a565b5b905f5260205f2090600302015f015f9054906101000a900473ffffffffffffffffffffffffffffffffffffffff1673ffffffffffffffffffffffffffffffffffffffff160361186357600191505061187b565b808061186e906141ae565b9150506117d8565b505f90505b90565b5f60078054905090505f6040518060e001604052808381526020018a8a8080601f0160208091040260200160405190810160405280939291908181526020018383808284375f81840152601f19601f82011690508083019250505050505050815260200188888080601f0160208091040260200160405190810160405280939291908181526020018383808284375f81840152601f19601f82011690508083019250505050505050815260200186600281111561193e5761193d613452565b5b815260200185151581526020013373ffffffffffffffffffffffffffffffffffffffff168152602001848152509050600781908060018154018082558091505060019003905f5260205f2090600502015f909190919091505f820151815f015560208201518160010190816119b39190613f8b565b5060408201518160020190816119c99190613f8b565b506060820151816003015f6101000a81548160ff021916908360028111156119f4576119f3613452565b5b021790555060808201518160030160016101000a81548160ff02191690831515021790555060a08201518160030160026101000a81548173ffffffffffffffffffffffffffffffffffffffff021916908373ffffffffffffffffffffffffffffffffffffffff16021790555060c082015181600401555050505050505050505050565b60605f600b5f8473ffffffffffffffffffffffffffffffffffffffff1673ffffffffffffffffffffffffffffffffffffffff1681526020019081526020015f208054905067ffffffffffffffff811115611ad457611ad3613dc1565b5b604051908082528060200260200182016040528015611b0d57816020015b611afa613134565b815260200190600190039081611af25790505b5090505f805b600b5f8673ffffffffffffffffffffffffffffffffffffffff1673ffffffffffffffffffffffffffffffffffffffff1681526020019081526020015f2080549050811015611e5057600b5f8673ffffffffffffffffffffffffffffffffffffffff1673ffffffffffffffffffffffffffffffffffffffff1681526020019081526020015f208181548110611baa57611ba961405a565b5b905f5260205f20906005020160030160019054906101000a900460ff1615611e3d57600b5f8673ffffffffffffffffffffffffffffffffffffffff1673ffffffffffffffffffffffffffffffffffffffff1681526020019081526020015f208181548110611c1b57611c1a61405a565b5b905f5260205f2090600502016040518060e00160405290815f8201548152602001600182018054611c4b90613d91565b80601f0160208091040260200160405190810160405280929190818152602001828054611c7790613d91565b8015611cc25780601f10611c9957610100808354040283529160200191611cc2565b820191905f5260205f20905b815481529060010190602001808311611ca557829003601f168201915b50505050508152602001600282018054611cdb90613d91565b80601f0160208091040260200160405190810160405280929190818152602001828054611d0790613d91565b8015611d525780601f10611d2957610100808354040283529160200191611d52565b820191905f5260205f20905b815481529060010190602001808311611d3557829003601f168201915b50505050508152602001600382015f9054906101000a900460ff166002811115611d7f57611d7e613452565b5b6002811115611d9157611d90613452565b5b81526020016003820160019054906101000a900460ff161515151581526020016003820160029054906101000a900473ffffffffffffffffffffffffffffffffffffffff1673ffffffffffffffffffffffffffffffffffffffff1673ffffffffffffffffffffffffffffffffffffffff168152602001600482015481525050838381518110611e2357611e2261405a565b5b60200260200101819052508180611e39906141ae565b9250505b8080611e48906141ae565b915050611b13565b505f8167ffffffffffffffff811115611e6c57611e6b613dc1565b5b604051908082528060200260200182016040528015611ea557816020015b611e92613134565b815260200190600190039081611e8a5790505b5090505f91505f5b8351811015611f8257600b5f8773ffffffffffffffffffffffffffffffffffffffff1673ffffffffffffffffffffffffffffffffffffffff1681526020019081526020015f208181548110611f0557611f0461405a565b5b905f5260205f20906005020160030160019054906101000a900460ff1615611f6f57838181518110611f3a57611f3961405a565b5b6020026020010151828481518110611f5557611f5461405a565b5b60200260200101819052508280611f6b906141ae565b9350505b8080611f7a906141ae565b915050611ead565b50809350505050919050565b5f600c5f8473ffffffffffffffffffffffffffffffffffffffff1673ffffffffffffffffffffffffffffffffffffffff1681526020019081526020015f20905060016007825f015481548110611fe757611fe661405a565b5b905f5260205f2090600502016003015f6101000a81548160ff0219169083600281111561201757612016613452565b5b02179055505f6007825f0154815481106120345761203361405a565b5b905f5260205f2090600502016004015490506120508482612ccd565b80600d5f8773ffffffffffffffffffffffffffffffffffffffff1673ffffffffffffffffffffffffffffffffffffffff1681526020019081526020015f205461209991906141f5565b600d5f8773ffffffffffffffffffffffffffffffffffffffff1673ffffffffffffffffffffffffffffffffffffffff1681526020019081526020015f2081905550836007835f0154815481106120f2576120f161405a565b5b905f5260205f20906005020160030160026101000a81548173ffffffffffffffffffffffffffffffffffffffff021916908373ffffffffffffffffffffffffffffffffffffffff16021790555080600d5f8773ffffffffffffffffffffffffffffffffffffffff1673ffffffffffffffffffffffffffffffffffffffff1681526020019081526020015f20546121889190614228565b600d5f8773ffffffffffffffffffffffffffffffffffffffff1673ffffffffffffffffffffffffffffffffffffffff1681526020019081526020015f208190555080600d5f8673ffffffffffffffffffffffffffffffffffffffff1673ffffffffffffffffffffffffffffffffffffffff1681526020019081526020015f205461221291906141f5565b600d5f8673ffffffffffffffffffffffffffffffffffffffff1673ffffffffffffffffffffffffffffffffffffffff1681526020019081526020015f208190555082826003015f6101000a81548160ff0219169083151502179055505050505050565b5f60068054905090505f3390505f604051806060016040528084815260200186868080601f0160208091040260200160405190810160405280939291908181526020018383808284375f81840152601f19601f8201169050808301925050505050505081526020018373ffffffffffffffffffffffffffffffffffffffff168152509050600681908060018154018082558091505060019003905f5260205f2090600302015f909190919091505f820151815f0155602082015181600101908161233f9190613f8b565b506040820151816002015f6101000a81548173ffffffffffffffffffffffffffffffffffffffff021916908373ffffffffffffffffffffffffffffffffffffffff16021790555050505050505050565b600b602052815f5260405f2081815481106123a8575f80fd5b905f5260205f2090600502015f9150915050805f0154908060010180546123ce90613d91565b80601f01602080910402602001604051908101604052809291908181526020018280546123fa90613d91565b80156124455780601f1061241c57610100808354040283529160200191612445565b820191905f5260205f20905b81548152906001019060200180831161242857829003601f168201915b50505050509080600201805461245a90613d91565b80601f016020809104026020016040519081016040528092919081815260200182805461248690613d91565b80156124d15780601f106124a8576101008083540402835291602001916124d1565b820191905f5260205f20905b8154815290600101906020018083116124b457829003601f168201915b505050505090806003015f9054906101000a900460ff16908060030160019054906101000a900460ff16908060030160029054906101000a900473ffffffffffffffffffffffffffffffffffffffff16908060040154905087565b5f60015f8473ffffffffffffffffffffffffffffffffffffffff1673ffffffffffffffffffffffffffffffffffffffff1681526020019081526020015f205f8373ffffffffffffffffffffffffffffffffffffffff1673ffffffffffffffffffffffffffffffffffffffff1681526020019081526020015f2054905092915050565b5f600782815481106125c3576125c261405a565b5b905f5260205f20906005020160030160029054906101000a900473ffffffffffffffffffffffffffffffffffffffff1690505f6007838154811061260a5761260961405a565b5b905f5260205f2090600502016004015490506002600784815481106126325761263161405a565b5b905f5260205f2090600502016003015f6101000a81548160ff0219169083600281111561266257612661613452565b5b0217905550612672848383612bdd565b80600d5f8473ffffffffffffffffffffffffffffffffffffffff1673ffffffffffffffffffffffffffffffffffffffff1681526020019081526020015f205410156126f2576040517f08c379a00000000000000000000000000000000000000000000000000000000081526004016126e9906142cb565b60405180910390fd5b80600d5f8473ffffffffffffffffffffffffffffffffffffffff1673ffffffffffffffffffffffffffffffffffffffff1681526020019081526020015f205461273b9190614228565b600d5f8473ffffffffffffffffffffffffffffffffffffffff1673ffffffffffffffffffffffffffffffffffffffff1681526020019081526020015f208190555050505050565b5f61278b6117d2565b6129c6575f5b600a8054905081101561282b57600a81815481106127b2576127b161405a565b5b905f5260205f20016040516020016127ca9190614373565b6040516020818303038152906040528051906020012086866040516020016127f39291906143bb565b60405160208183030381529060405280519060200120036128185760029150506129ca565b8080612823906141ae565b915050612791565b505f60405180606001604052803373ffffffffffffffffffffffffffffffffffffffff16815260200187878080601f0160208091040260200160405190810160405280939291908181526020018383808284375f81840152601f19601f82011690508083019250505050505050815260200185858080601f0160208091040260200160405190810160405280939291908181526020018383808284375f81840152601f19601f820116905080830192505050505050508152509050600981908060018154018082558091505060019003905f5260205f2090600302015f909190919091505f820151815f015f6101000a81548173ffffffffffffffffffffffffffffffffffffffff021916908373ffffffffffffffffffffffffffffffffffffffff16021790555060208201518160010190816129689190613f8b565b50604082015181600201908161297e9190613f8b565b505050600a868690918060018154018082558091505060019003905f5260205f20015f9091929091929091929091925091826129bb9291906143dd565b5060019150506129ca565b5f90505b949350505050565b600981815481106129e1575f80fd5b905f5260205f2090600302015f91509050805f015f9054906101000a900473ffffffffffffffffffffffffffffffffffffffff1690806001018054612a2590613d91565b80601f0160208091040260200160405190810160405280929190818152602001828054612a5190613d91565b8015612a9c5780601f10612a7357610100808354040283529160200191612a9c565b820191905f5260205f20905b815481529060010190602001808311612a7f57829003601f168201915b505050505090806002018054612ab190613d91565b80601f0160208091040260200160405190810160405280929190818152602001828054612add90613d91565b8015612b285780601f10612aff57610100808354040283529160200191612b28565b820191905f5260205f20905b815481529060010190602001808311612b0b57829003601f168201915b5050505050905083565b5f33905090565b612b468383836001612d4c565b505050565b5f612b56848461252c565b90507fffffffffffffffffffffffffffffffffffffffffffffffffffffffffffffffff8114612bd75781811015612bc8578281836040517ffb8f41b2000000000000000000000000000000000000000000000000000000008152600401612bbf939291906144aa565b60405180910390fd5b612bd684848484035f612d4c565b5b50505050565b5f73ffffffffffffffffffffffffffffffffffffffff168373ffffffffffffffffffffffffffffffffffffffff1603612c4d575f6040517f96c6fd1e000000000000000000000000000000000000000000000000000000008152600401612c449190613a3e565b60405180910390fd5b5f73ffffffffffffffffffffffffffffffffffffffff168273ffffffffffffffffffffffffffffffffffffffff1603612cbd575f6040517fec442f05000000000000000000000000000000000000000000000000000000008152600401612cb49190613a3e565b60405180910390fd5b612cc8838383612f1b565b505050565b5f73ffffffffffffffffffffffffffffffffffffffff168273ffffffffffffffffffffffffffffffffffffffff1603612d3d575f6040517fec442f05000000000000000000000000000000000000000000000000000000008152600401612d349190613a3e565b60405180910390fd5b612d485f8383612f1b565b5050565b5f73ffffffffffffffffffffffffffffffffffffffff168473ffffffffffffffffffffffffffffffffffffffff1603612dbc575f6040517fe602df05000000000000000000000000000000000000000000000000000000008152600401612db39190613a3e565b60405180910390fd5b5f73ffffffffffffffffffffffffffffffffffffffff168373ffffffffffffffffffffffffffffffffffffffff1603612e2c575f6040517f94280d62000000000000000000000000000000000000000000000000000000008152600401612e239190613a3e565b60405180910390fd5b8160015f8673ffffffffffffffffffffffffffffffffffffffff1673ffffffffffffffffffffffffffffffffffffffff1681526020019081526020015f205f8573ffffffffffffffffffffffffffffffffffffffff1673ffffffffffffffffffffffffffffffffffffffff1681526020019081526020015f20819055508015612f15578273ffffffffffffffffffffffffffffffffffffffff168473ffffffffffffffffffffffffffffffffffffffff167f8c5be1e5ebec7d5bd14f71427d1e84f3dd0314c0f7b2291e5b200ac8c7c3b92584604051612f0c9190613540565b60405180910390a35b50505050565b5f73ffffffffffffffffffffffffffffffffffffffff168373ffffffffffffffffffffffffffffffffffffffff1603612f6b578060025f828254612f5f91906141f5565b92505081905550613039565b5f805f8573ffffffffffffffffffffffffffffffffffffffff1673ffffffffffffffffffffffffffffffffffffffff1681526020019081526020015f2054905081811015612ff4578381836040517fe450d38c000000000000000000000000000000000000000000000000000000008152600401612feb939291906144aa565b60405180910390fd5b8181035f808673ffffffffffffffffffffffffffffffffffffffff1673ffffffffffffffffffffffffffffffffffffffff1681526020019081526020015f2081905550505b5f73ffffffffffffffffffffffffffffffffffffffff168273ffffffffffffffffffffffffffffffffffffffff1603613080578060025f82825403925050819055506130ca565b805f808473ffffffffffffffffffffffffffffffffffffffff1673ffffffffffffffffffffffffffffffffffffffff1681526020019081526020015f205f82825401925050819055505b8173ffffffffffffffffffffffffffffffffffffffff168373ffffffffffffffffffffffffffffffffffffffff167fddf252ad1be2c89b69c2b068fc378daa952ba7f163c4a11628f55a4df523b3ef836040516131279190613540565b60405180910390a3505050565b6040518060e001604052805f815260200160608152602001606081526020015f600281111561316657613165613452565b5b81526020015f151581526020015f73ffffffffffffffffffffffffffffffffffffffff1681526020015f81525090565b60405180608001604052805f81526020015f73ffffffffffffffffffffffffffffffffffffffff168152602001606081526020015f151581525090565b5f80fd5b5f80fd5b5f819050919050565b6131ed816131db565b81146131f7575f80fd5b50565b5f81359050613208816131e4565b92915050565b5f60208284031215613223576132226131d3565b5b5f613230848285016131fa565b91505092915050565b613242816131db565b82525050565b5f73ffffffffffffffffffffffffffffffffffffffff82169050919050565b5f61327182613248565b9050919050565b61328181613267565b82525050565b5f81519050919050565b5f82825260208201905092915050565b5f5b838110156132be5780820151818401526020810190506132a3565b5f8484015250505050565b5f601f19601f8301169050919050565b5f6132e382613287565b6132ed8185613291565b93506132fd8185602086016132a1565b613306816132c9565b840191505092915050565b5f8115159050919050565b61332581613311565b82525050565b5f60808201905061333e5f830187613239565b61334b6020830186613278565b818103604083015261335d81856132d9565b905061336c606083018461331c565b95945050505050565b5f6020820190508181035f83015261338d81846132d9565b905092915050565b61339e81613267565b81146133a8575f80fd5b50565b5f813590506133b981613395565b92915050565b5f80604083850312156133d5576133d46131d3565b5b5f6133e2858286016133ab565b92505060206133f3858286016131fa565b9150509250929050565b5f6020820190506134105f83018461331c565b92915050565b5f6060820190506134295f830186613239565b818103602083015261343b81856132d9565b905061344a6040830184613278565b949350505050565b7f4e487b71000000000000000000000000000000000000000000000000000000005f52602160045260245ffd5b600381106134905761348f613452565b5b50565b5f8190506134a08261347f565b919050565b5f6134af82613493565b9050919050565b6134bf816134a5565b82525050565b5f60e0820190506134d85f83018a613239565b81810360208301526134ea81896132d9565b905081810360408301526134fe81886132d9565b905061350d60608301876134b6565b61351a608083018661331c565b61352760a0830185613278565b61353460c0830184613239565b98975050505050505050565b5f6020820190506135535f830184613239565b92915050565b5f80fd5b5f80fd5b5f80fd5b5f8083601f84011261357a57613579613559565b5b8235905067ffffffffffffffff8111156135975761359661355d565b5b6020830191508360018202830111156135b3576135b2613561565b5b9250929050565b6135c381613311565b81146135cd575f80fd5b50565b5f813590506135de816135ba565b92915050565b5f805f805f608086880312156135fd576135fc6131d3565b5b5f61360a888289016131fa565b955050602061361b888289016133ab565b945050604086013567ffffffffffffffff81111561363c5761363b6131d7565b5b61364888828901613565565b9350935050606061365b888289016135d0565b9150509295509295909350565b5f805f6060848603121561367f5761367e6131d3565b5b5f61368c868287016133ab565b935050602061369d868287016133ab565b92505060406136ae868287016131fa565b9150509250925092565b5f60ff82169050919050565b6136cd816136b8565b82525050565b5f6020820190506136e65f8301846136c4565b92915050565b5f81519050919050565b5f82825260208201905092915050565b5f819050602082019050919050565b61371e816131db565b82525050565b5f82825260208201905092915050565b5f61373e82613287565b6137488185613724565b93506137588185602086016132a1565b613761816132c9565b840191505092915050565b61377581613267565b82525050565b5f606083015f8301516137905f860182613715565b50602083015184820360208601526137a88282613734565b91505060408301516137bd604086018261376c565b508091505092915050565b5f6137d3838361377b565b905092915050565b5f602082019050919050565b5f6137f1826136ec565b6137fb81856136f6565b93508360208202850161380d85613706565b805f5b85811015613848578484038952815161382985826137c8565b9450613834836137db565b925060208a01995050600181019050613810565b50829750879550505050505092915050565b5f6020820190508181035f83015261387281846137e7565b905092915050565b5f81519050919050565b5f82825260208201905092915050565b5f819050602082019050919050565b6138ac816134a5565b82525050565b6138bb81613311565b82525050565b5f60e083015f8301516138d65f860182613715565b50602083015184820360208601526138ee8282613734565b915050604083015184820360408601526139088282613734565b915050606083015161391d60608601826138a3565b50608083015161393060808601826138b2565b5060a083015161394360a086018261376c565b5060c083015161395660c0860182613715565b508091505092915050565b5f61396c83836138c1565b905092915050565b5f602082019050919050565b5f61398a8261387a565b6139948185613884565b9350836020820285016139a685613894565b805f5b858110156139e157848403895281516139c28582613961565b94506139cd83613974565b925060208a019950506001810190506139a9565b50829750879550505050505092915050565b5f6020820190508181035f830152613a0b8184613980565b905092915050565b5f60208284031215613a2857613a276131d3565b5b5f613a35848285016133ab565b91505092915050565b5f602082019050613a515f830184613278565b92915050565b5f608083015f830151613a6c5f860182613715565b506020830151613a7f602086018261376c565b5060408301518482036040860152613a978282613734565b9150506060830151613aac60608601826138b2565b508091505092915050565b5f6020820190508181035f830152613acf8184613a57565b905092915050565b5f602082019050613aea5f8301846134b6565b92915050565b60038110613afc575f80fd5b50565b5f81359050613b0d81613af0565b92915050565b5f805f805f805f60a0888a031215613b2e57613b2d6131d3565b5b5f88013567ffffffffffffffff811115613b4b57613b4a6131d7565b5b613b578a828b01613565565b9750975050602088013567ffffffffffffffff811115613b7a57613b796131d7565b5b613b868a828b01613565565b95509550506040613b998a828b01613aff565b9350506060613baa8a828b016135d0565b9250506080613bbb8a828b016131fa565b91505092959891949750929550565b5f805f60608486031215613be157613be06131d3565b5b5f613bee868287016133ab565b9350506020613bff868287016133ab565b9250506040613c10868287016135d0565b9150509250925092565b5f8060208385031215613c3057613c2f6131d3565b5b5f83013567ffffffffffffffff811115613c4d57613c4c6131d7565b5b613c5985828601613565565b92509250509250929050565b5f8060408385031215613c7b57613c7a6131d3565b5b5f613c88858286016133ab565b9250506020613c99858286016133ab565b9150509250929050565b5f805f8060408587031215613cbb57613cba6131d3565b5b5f85013567ffffffffffffffff811115613cd857613cd76131d7565b5b613ce487828801613565565b9450945050602085013567ffffffffffffffff811115613d0757613d066131d7565b5b613d1387828801613565565b925092505092959194509250565b5f606082019050613d345f830186613278565b8181036020830152613d4681856132d9565b90508181036040830152613d5a81846132d9565b9050949350505050565b7f4e487b71000000000000000000000000000000000000000000000000000000005f52602260045260245ffd5b5f6002820490506001821680613da857607f821691505b602082108103613dbb57613dba613d64565b5b50919050565b7f4e487b71000000000000000000000000000000000000000000000000000000005f52604160045260245ffd5b5f819050815f5260205f209050919050565b5f6020601f8301049050919050565b5f82821b905092915050565b5f60088302613e4a7fffffffffffffffffffffffffffffffffffffffffffffffffffffffffffffffff82613e0f565b613e548683613e0f565b95508019841693508086168417925050509392505050565b5f819050919050565b5f613e8f613e8a613e85846131db565b613e6c565b6131db565b9050919050565b5f819050919050565b613ea883613e75565b613ebc613eb482613e96565b848454613e1b565b825550505050565b5f90565b613ed0613ec4565b613edb818484613e9f565b505050565b5b81811015613efe57613ef35f82613ec8565b600181019050613ee1565b5050565b601f821115613f4357613f1481613dee565b613f1d84613e00565b81016020851015613f2c578190505b613f40613f3885613e00565b830182613ee0565b50505b505050565b5f82821c905092915050565b5f613f635f1984600802613f48565b1980831691505092915050565b5f613f7b8383613f54565b9150826002028217905092915050565b613f9482613287565b67ffffffffffffffff811115613fad57613fac613dc1565b5b613fb78254613d91565b613fc2828285613f02565b5f60209050601f831160018114613ff3575f8415613fe1578287015190505b613feb8582613f70565b865550614052565b601f19841661400186613dee565b5f5b8281101561402857848901518255600182019150602085019450602081019050614003565b868310156140455784890151614041601f891682613f54565b8355505b6001600288020188555050505b505050505050565b7f4e487b71000000000000000000000000000000000000000000000000000000005f52603260045260245ffd5b5f8154905061409581613d91565b9050919050565b8181036140aa57505061417f565b6140b382614087565b67ffffffffffffffff8111156140cc576140cb613dc1565b5b6140d68254613d91565b6140e1828285613f02565b5f601f83116001811461410e575f84156140fc578287015490505b6141068582613f70565b865550614178565b601f19841661411c87613dee565b965061412786613dee565b5f5b8281101561414e57848901548255600182019150600185019450602081019050614129565b8683101561416b5784890154614167601f891682613f54565b8355505b6001600288020188555050505b5050505050505b565b7f4e487b71000000000000000000000000000000000000000000000000000000005f52601160045260245ffd5b5f6141b8826131db565b91507fffffffffffffffffffffffffffffffffffffffffffffffffffffffffffffffff82036141ea576141e9614181565b5b600182019050919050565b5f6141ff826131db565b915061420a836131db565b925082820190508082111561422257614221614181565b5b92915050565b5f614232826131db565b915061423d836131db565b925082820390508181111561425557614254614181565b5b92915050565b7f496e73756666696369656e742062616c616e636520666f7220776974686472615f8201527f77616c0000000000000000000000000000000000000000000000000000000000602082015250565b5f6142b5602383613291565b91506142c08261425b565b604082019050919050565b5f6020820190508181035f8301526142e2816142a9565b9050919050565b5f81905092915050565b5f81546142ff81613d91565b61430981866142e9565b9450600182165f811461432357600181146143385761436a565b60ff198316865281151582028601935061436a565b61434185613dee565b5f5b8381101561436257815481890152600182019150602081019050614343565b838801955050505b50505092915050565b5f61437e82846142f3565b915081905092915050565b828183375f83830152505050565b5f6143a283856142e9565b93506143af838584614389565b82840190509392505050565b5f6143c7828486614397565b91508190509392505050565b5f82905092915050565b6143e783836143d3565b67ffffffffffffffff811115614400576143ff613dc1565b5b61440a8254613d91565b614415828285613f02565b5f601f831160018114614442575f8415614430578287013590505b61443a8582613f70565b8655506144a1565b601f19841661445086613dee565b5f5b8281101561447757848901358255600182019150602085019450602081019050614452565b868310156144945784890135614490601f891682613f54565b8355505b6001600288020188555050505b50505050505050565b5f6060820190506144bd5f830186613278565b6144ca6020830185613239565b6144d76040830184613239565b94935050505056fea264697066735822122073d5c278ad4caa5a05c18879dec0aaf0635b80a90e573c55b8c9ee0a114cf0b564736f6c63430008150033",
  "immutableReferences": {},
  "source": "// SPDX-License-Identifier: MITp\n\npragma solidity  ^0.8.21;\n// import \"./escrow.sol\";\nimport \"@openzeppelin/contracts/access/Ownable.sol\";\nimport \"@openzeppelin/contracts/access/AccessControl.sol\";\nimport \"@openzeppelin/contracts/token/ERC20/ERC20.sol\";\n\ncontract Freelancing is ERC20 {\n\n    //structures\n    struct Account{\n        address addr;\n        string Name;\n        string Password;\n    }\n    struct Freelancer{\n        uint256 lancer_id;\n        string name;\n        address lancer_address;\n    }\n    struct Job{\n        uint256 id;\n        string jobName;\n        string jobDescription;\n        Selection progress;\n        bool isSelected;\n        address lancer;\n        uint256 amount;\n    }\n    struct Proposal{\n        uint256 id;\n        address freelancer_address;\n        string name;\n        bool status ;\n    }\n\n    //variables\n    address public owner;\n    Freelancer [] public freelancers;\n    Job[] public jobList;\n    Proposal[] public proposals;\n    Account[] public Accounts; \n    string[] public usernames;\n    mapping(address=>Job[]) public myJobs;\n    mapping(address => Proposal) public proposalKeys; \n    mapping(address => uint256) escrowBalances;\n    enum Selection {open, ongoing, close}\n\n     \n    //constructor\n    constructor() ERC20(\"EscrowToken\", \"ET\"){\n        owner = msg.sender;\n        _mint(msg.sender, 10000 * 10 ** uint(decimals()));\n    }\n    \n    //functions\n    \n    function returnSelection() public pure returns(Selection){\n        Selection selection;\n        return selection;\n    }\n    function getAllProposals(address client) external view returns (Proposal memory){\n        return proposalKeys[client];\n    }\n    function postJob(string calldata jobName, string calldata jobDescription, Selection _progress, bool isSelected, uint256 amount) public{\n        uint256 id = jobList.length;\n       Job memory jobItem = Job({id: id, jobName: jobName, jobDescription: jobDescription, progress: _progress,\n                                isSelected: isSelected, lancer: msg.sender, amount: amount}); \n       jobList.push(jobItem);\n    }\n\n    function completeJob(uint256 id) public{\n       if(!jobList[id].isSelected){\n           jobList[id].isSelected = true;\n       } \n    }\n    function login()public view returns (bool){\n        for(uint i = 0; i < Accounts.length; i++){\n           if(Accounts[i].addr == msg.sender){\n               return true;\n           } \n        }\n        return false;\n    }\n    function sigIn(string calldata name, string calldata password) external returns (uint){\n        if(!login()){\n            for(uint i = 0; i < usernames.length; i++){\n                if(keccak256(abi.encodePacked(name)) == keccak256(abi.encodePacked(usernames[i])) ){\n                    return 2;\n                }\n            }\n            Account memory account = Account(msg.sender, name, password);\n            Accounts.push(account);\n            usernames.push(name);\n            return 1;\n        }\n        else{\n            return 0;\n        }\n    }\n\n    function getMyJobs(address lancer) external view returns (Job[] memory){\n        Job[] memory temporary = new Job[](myJobs[lancer].length);\n        uint count = 0;\n        for(uint i = 0; i < myJobs[lancer].length; i++){\n            if(myJobs[lancer][i].isSelected){\n                temporary[count] = myJobs[lancer][i];\n                count++;\n            }\n        }\n        Job[] memory result = new Job[](count);\n        count = 0;\n        for(uint i = 0; i < temporary.length; i++){\n            if(myJobs[lancer][i].isSelected){\n                result[count] = temporary[i];\n                count++;\n            }\n        }\n        return result;\n    }\n\n    function addFreelancers(string calldata name)external{\n        uint256 id = freelancers.length;\n        address lancer = msg.sender;\n        Freelancer memory freelancer = Freelancer(id, name, lancer);  \n        freelancers.push(freelancer);\n    }\n\n    function getAllFreelancers()external view returns (Freelancer[] memory){\n        return freelancers;\n    }\n\n    \n    function getJobs() external view returns (Job[] memory){\n       Job[] memory temporary = new Job[](jobList.length);\n       uint count = 0;\n       for(uint i=0; i<jobList.length; i++){\n           if(jobList[i].isSelected){\n               temporary[count] = jobList[i];\n               count++;\n           }\n       }\n       Job[] memory result = new Job[](temporary.length);\n       for(uint i=0; i<temporary.length; i++){\n           result[i] = temporary[i];\n       }\n       return result;\n    }\n\n    function selectJob(uint256 id, address lancer, string calldata name, bool status) external returns (bool){\n        Proposal memory proposal = Proposal(id, lancer, name, status);\n        proposals.push(proposal);\n        proposalKeys[lancer] = proposal;\n        myJobs[lancer].push(jobList[id]);\n        return true;\n    }\n\n    function selectProposal(address client, address lancer, bool status) public {\n        Proposal storage selectedProposal = proposalKeys[lancer];\n        jobList[selectedProposal.id].progress = Selection.ongoing;\n        uint256 amount = jobList[selectedProposal.id].amount;\n        _mint(lancer, amount);\n        escrowBalances[client] = escrowBalances[client] + amount;\n        jobList[selectedProposal.id].lancer = lancer;\n        escrowBalances[client] = escrowBalances[client] - amount;\n        escrowBalances[lancer] = escrowBalances[lancer] + amount;\n        selectedProposal.status = status;\n}\n    function complete(address client, uint256 id) public {\n        address lancer = jobList[id].lancer;\n        uint256 amount = jobList[id].amount;\n        jobList[id].progress = Selection.close;\n\n        _transfer(client, lancer, amount);\n        require(escrowBalances[lancer] >= amount, \"Insufficient balance for withdrawal\");\n        escrowBalances[lancer] = escrowBalances[lancer] - amount;\n    }\n\n}\n\n",
  "sourcePath": "/home/tardigrade/Documents/dev/BC/cat-2/projects/freelancing-react-app/contracts/freelancing.sol",
  "compiler": {
    "name": "solc",
    "version": "0.8.21+commit.d9974bed.Emscripten.clang"
  },
  "schemaVersion": "3.4.16",
  "updatedAt": "2024-03-31T20:07:28.051Z",
  "networkType": "ethereum",
  "devdoc": {
    "errors": {
      "ERC20InsufficientAllowance(address,uint256,uint256)": [
        {
          "details": "Indicates a failure with the `spender`s `allowance`. Used in transfers.",
          "params": {
            "allowance": "Amount of tokens a `spender` is allowed to operate with.",
            "needed": "Minimum amount required to perform a transfer.",
            "spender": "Address that may be allowed to operate on tokens without being their owner."
          }
        }
      ],
      "ERC20InsufficientBalance(address,uint256,uint256)": [
        {
          "details": "Indicates an error related to the current `balance` of a `sender`. Used in transfers.",
          "params": {
            "balance": "Current balance for the interacting account.",
            "needed": "Minimum amount required to perform a transfer.",
            "sender": "Address whose tokens are being transferred."
          }
        }
      ],
      "ERC20InvalidApprover(address)": [
        {
          "details": "Indicates a failure with the `approver` of a token to be approved. Used in approvals.",
          "params": {
            "approver": "Address initiating an approval operation."
          }
        }
      ],
      "ERC20InvalidReceiver(address)": [
        {
          "details": "Indicates a failure with the token `receiver`. Used in transfers.",
          "params": {
            "receiver": "Address to which tokens are being transferred."
          }
        }
      ],
      "ERC20InvalidSender(address)": [
        {
          "details": "Indicates a failure with the token `sender`. Used in transfers.",
          "params": {
            "sender": "Address whose tokens are being transferred."
          }
        }
      ],
      "ERC20InvalidSpender(address)": [
        {
          "details": "Indicates a failure with the `spender` to be approved. Used in approvals.",
          "params": {
            "spender": "Address that may be allowed to operate on tokens without being their owner."
          }
        }
      ]
    },
    "events": {
      "Approval(address,address,uint256)": {
        "details": "Emitted when the allowance of a `spender` for an `owner` is set by a call to {approve}. `value` is the new allowance."
      },
      "Transfer(address,address,uint256)": {
        "details": "Emitted when `value` tokens are moved from one account (`from`) to another (`to`). Note that `value` may be zero."
      }
    },
    "kind": "dev",
    "methods": {
      "allowance(address,address)": {
        "details": "See {IERC20-allowance}."
      },
      "approve(address,uint256)": {
        "details": "See {IERC20-approve}. NOTE: If `value` is the maximum `uint256`, the allowance is not updated on `transferFrom`. This is semantically equivalent to an infinite approval. Requirements: - `spender` cannot be the zero address."
      },
      "balanceOf(address)": {
        "details": "See {IERC20-balanceOf}."
      },
      "decimals()": {
        "details": "Returns the number of decimals used to get its user representation. For example, if `decimals` equals `2`, a balance of `505` tokens should be displayed to a user as `5.05` (`505 / 10 ** 2`). Tokens usually opt for a value of 18, imitating the relationship between Ether and Wei. This is the default value returned by this function, unless it's overridden. NOTE: This information is only used for _display_ purposes: it in no way affects any of the arithmetic of the contract, including {IERC20-balanceOf} and {IERC20-transfer}."
      },
      "name()": {
        "details": "Returns the name of the token."
      },
      "symbol()": {
        "details": "Returns the symbol of the token, usually a shorter version of the name."
      },
      "totalSupply()": {
        "details": "See {IERC20-totalSupply}."
      },
      "transfer(address,uint256)": {
        "details": "See {IERC20-transfer}. Requirements: - `to` cannot be the zero address. - the caller must have a balance of at least `value`."
      },
      "transferFrom(address,address,uint256)": {
        "details": "See {IERC20-transferFrom}. Emits an {Approval} event indicating the updated allowance. This is not required by the EIP. See the note at the beginning of {ERC20}. NOTE: Does not update the allowance if the current allowance is the maximum `uint256`. Requirements: - `from` and `to` cannot be the zero address. - `from` must have a balance of at least `value`. - the caller must have allowance for ``from``'s tokens of at least `value`."
      }
    },
    "version": 1
  },
  "userdoc": {
    "kind": "user",
    "methods": {},
    "version": 1
  }
}